{
  "contractName": "InvestorsHandler",
  "abi": [
    {
      "inputs": [],
      "stateMutability": "nonpayable",
      "type": "constructor"
    },
    {
      "anonymous": false,
      "inputs": [
        {
          "indexed": false,
          "internalType": "address",
          "name": "_creator",
          "type": "address"
        },
        {
          "indexed": false,
          "internalType": "address",
          "name": "_investorAddress",
          "type": "address"
        },
        {
          "indexed": false,
          "internalType": "string",
          "name": "_investorName",
          "type": "string"
        },
        {
          "indexed": false,
          "internalType": "uint256",
          "name": "_registerDate",
          "type": "uint256"
        },
        {
          "indexed": false,
          "internalType": "bool",
          "name": "_status",
          "type": "bool"
        },
        {
          "indexed": false,
          "internalType": "uint256",
          "name": "_rating",
          "type": "uint256"
        },
        {
          "indexed": false,
          "internalType": "uint256",
          "name": "_amountInvested",
          "type": "uint256"
        }
      ],
      "name": "LogCreateInvestor",
      "type": "event"
    },
    {
      "anonymous": false,
      "inputs": [
        {
          "indexed": false,
          "internalType": "address",
          "name": "_owner",
          "type": "address"
        },
        {
          "indexed": false,
          "internalType": "address",
          "name": "_investorAddress",
          "type": "address"
        },
        {
          "indexed": false,
          "internalType": "bool",
          "name": "_status",
          "type": "bool"
        }
      ],
      "name": "LogNewInvestorStatus",
      "type": "event"
    },
    {
      "anonymous": false,
      "inputs": [
        {
          "indexed": true,
          "internalType": "address",
          "name": "previousOwner",
          "type": "address"
        },
        {
          "indexed": true,
          "internalType": "address",
          "name": "newOwner",
          "type": "address"
        }
      ],
      "name": "OwnershipTransferred",
      "type": "event"
    },
    {
      "inputs": [
        {
          "internalType": "uint256",
          "name": "",
          "type": "uint256"
        }
      ],
      "name": "investorList",
      "outputs": [
        {
          "internalType": "address",
          "name": "",
          "type": "address"
        }
      ],
      "stateMutability": "view",
      "type": "function",
      "constant": true
    },
    {
      "inputs": [
        {
          "internalType": "address",
          "name": "",
          "type": "address"
        }
      ],
      "name": "investors",
      "outputs": [
        {
          "internalType": "string",
          "name": "name",
          "type": "string"
        },
        {
          "internalType": "uint256",
          "name": "registerDate",
          "type": "uint256"
        },
        {
          "internalType": "bool",
          "name": "status",
          "type": "bool"
        },
        {
          "internalType": "uint256",
          "name": "rating",
          "type": "uint256"
        },
        {
          "internalType": "uint256",
          "name": "amountInvested",
          "type": "uint256"
        },
        {
          "internalType": "uint256",
          "name": "termalReceived",
          "type": "uint256"
        },
        {
          "internalType": "bool",
          "name": "hasContract",
          "type": "bool"
        },
        {
          "internalType": "address",
          "name": "investorContractAddress",
          "type": "address"
        }
      ],
      "stateMutability": "view",
      "type": "function",
      "constant": true
    },
    {
      "inputs": [],
      "name": "owner",
      "outputs": [
        {
          "internalType": "address",
          "name": "",
          "type": "address"
        }
      ],
      "stateMutability": "view",
      "type": "function",
      "constant": true
    },
    {
      "inputs": [],
      "name": "renounceOwnership",
      "outputs": [],
      "stateMutability": "nonpayable",
      "type": "function"
    },
    {
      "inputs": [
        {
          "internalType": "address",
          "name": "newOwner",
          "type": "address"
        }
      ],
      "name": "transferOwnership",
      "outputs": [],
      "stateMutability": "nonpayable",
      "type": "function"
    },
    {
      "inputs": [
        {
          "internalType": "address",
          "name": "_investorAddress",
          "type": "address"
        },
        {
          "internalType": "string",
          "name": "_investorName",
          "type": "string"
        }
      ],
      "name": "createInvestor",
      "outputs": [],
      "stateMutability": "nonpayable",
      "type": "function"
    },
    {
      "inputs": [
        {
          "internalType": "address",
          "name": "_investorWallet",
          "type": "address"
        },
        {
          "internalType": "uint256",
          "name": "_investment",
          "type": "uint256"
        },
        {
          "internalType": "uint256",
          "name": "_managementFee",
          "type": "uint256"
        },
        {
          "internalType": "uint256",
          "name": "_termalCoinRatio",
          "type": "uint256"
        },
        {
          "internalType": "uint256",
          "name": "_duration",
          "type": "uint256"
        },
        {
          "internalType": "uint256",
          "name": "_interestRate",
          "type": "uint256"
        }
      ],
      "name": "createInvestorContract",
      "outputs": [],
      "stateMutability": "nonpayable",
      "type": "function"
    },
    {
      "inputs": [
        {
          "internalType": "address",
          "name": "_investor",
          "type": "address"
        }
      ],
      "name": "getSignatureStatus",
      "outputs": [
        {
          "internalType": "bool",
          "name": "",
          "type": "bool"
        }
      ],
      "stateMutability": "view",
      "type": "function",
      "constant": true
    },
    {
      "inputs": [
        {
          "internalType": "address",
          "name": "_investorAddress",
          "type": "address"
        }
      ],
      "name": "isValidInvestor",
      "outputs": [
        {
          "internalType": "bool",
          "name": "",
          "type": "bool"
        }
      ],
      "stateMutability": "view",
      "type": "function",
      "constant": true
    },
    {
      "inputs": [
        {
          "internalType": "address",
          "name": "_investorAddress",
          "type": "address"
        },
        {
          "internalType": "bool",
          "name": "_status",
          "type": "bool"
        }
      ],
      "name": "newInvestorStatus",
      "outputs": [],
      "stateMutability": "nonpayable",
      "type": "function"
    },
    {
      "inputs": [],
      "name": "getTotalInvestors",
      "outputs": [
        {
          "internalType": "uint256",
          "name": "",
          "type": "uint256"
        }
      ],
      "stateMutability": "view",
      "type": "function",
      "constant": true
    },
    {
      "inputs": [],
      "name": "getInvestors",
      "outputs": [
        {
          "internalType": "address[]",
          "name": "",
          "type": "address[]"
        }
      ],
      "stateMutability": "view",
      "type": "function",
      "constant": true
    },
    {
      "inputs": [
        {
          "internalType": "address",
          "name": "_receiver",
          "type": "address"
        },
        {
          "internalType": "uint256",
          "name": "_amount",
          "type": "uint256"
        }
      ],
      "name": "addDepositDai",
      "outputs": [],
      "stateMutability": "nonpayable",
      "type": "function"
    },
    {
      "inputs": [
        {
          "internalType": "address",
          "name": "_receiver",
          "type": "address"
        },
        {
          "internalType": "uint256",
          "name": "_amount",
          "type": "uint256"
        }
      ],
      "name": "addDepositTermal",
      "outputs": [],
      "stateMutability": "nonpayable",
      "type": "function"
    }
  ],
  "bytecode": "0x608060405234801561001057600080fd5b5061002d61002261003260201b60201c565b61003a60201b60201c565b6100fe565b600033905090565b60008060009054906101000a900473ffffffffffffffffffffffffffffffffffffffff169050816000806101000a81548173ffffffffffffffffffffffffffffffffffffffff021916908373ffffffffffffffffffffffffffffffffffffffff1602179055508173ffffffffffffffffffffffffffffffffffffffff168173ffffffffffffffffffffffffffffffffffffffff167f8be0079c531659141344cd1fd0a4f28419497f9722a3daafe3b4186f6b6457e060405160405180910390a35050565b612cd6806200010e6000396000f3fe60806040523480156200001157600080fd5b5060043610620001005760003560e01c806397c9f8ca1162000099578063c63208a4116200006f578063c63208a41462000294578063d7766d7914620002b4578063dceb4c0a14620002d6578063f2fde38b14620002f65762000100565b806397c9f8ca1462000232578063b2f5a54c1462000252578063b895f36f14620002745762000100565b80636f7bc9be11620000db5780636f7bc9be1462000191578063715018a614620001ce57806375126d6414620001da5780638da5cb5b14620002105762000100565b80630452141b146200010557806312f9b48e14620001255780635092538a146200015b575b600080fd5b6200012360048036038101906200011d91906200122b565b62000316565b005b6200014360048036038101906200013d9190620012ad565b62000453565b604051620001529190620012f0565b60405180910390f35b6200017960048036038101906200017391906200130d565b62000493565b60405162000188919062001350565b60405180910390f35b620001af6004803603810190620001a991906200130d565b620004ec565b604051620001c598979695949392919062001422565b60405180910390f35b620001d8620005fe565b005b620001f86004803603810190620001f291906200130d565b62000616565b60405162000207919062001350565b60405180910390f35b6200021a62000785565b604051620002299190620012f0565b60405180910390f35b6200025060048036038101906200024a919062001608565b620007ae565b005b6200025c62000a63565b6040516200026b91906200173c565b60405180910390f35b6200029260048036038101906200028c919062001760565b62000af3565b005b620002b26004803603810190620002ac9190620017fc565b62000d77565b005b620002be62000e23565b604051620002cd919062001843565b60405180910390f35b620002f46004803603810190620002ee9190620017fc565b62000e30565b005b6200031460048036038101906200030e91906200130d565b62000edc565b005b6200032062000f66565b801515600160008473ffffffffffffffffffffffffffffffffffffffff1673ffffffffffffffffffffffffffffffffffffffff16815260200190815260200160002060020160009054906101000a900460ff16151503620003b8576040517f08c379a0000000000000000000000000000000000000000000000000000000008152600401620003af90620018d6565b60405180910390fd5b80600160008473ffffffffffffffffffffffffffffffffffffffff1673ffffffffffffffffffffffffffffffffffffffff16815260200190815260200160002060020160006101000a81548160ff0219169083151502179055507f332e0c190aecd762f1cefd9994a03dba54e64671f2e34cba060887bef73088aa3383836040516200044793929190620018f8565b60405180910390a15050565b600281815481106200046457600080fd5b906000526020600020016000915054906101000a900473ffffffffffffffffffffffffffffffffffffffff1681565b6000600160008373ffffffffffffffffffffffffffffffffffffffff1673ffffffffffffffffffffffffffffffffffffffff16815260200190815260200160002060020160009054906101000a900460ff169050919050565b6001602052806000526040600020600091509050806000018054620005119062001964565b80601f01602080910402602001604051908101604052809291908181526020018280546200053f9062001964565b8015620005905780601f10620005645761010080835404028352916020019162000590565b820191906000526020600020905b8154815290600101906020018083116200057257829003601f168201915b5050505050908060010154908060020160009054906101000a900460ff16908060030154908060040154908060050154908060060160009054906101000a900460ff16908060060160019054906101000a900473ffffffffffffffffffffffffffffffffffffffff16905088565b6200060862000f66565b62000614600062000feb565b565b6000600160008373ffffffffffffffffffffffffffffffffffffffff1673ffffffffffffffffffffffffffffffffffffffff16815260200190815260200160002060060160009054906101000a900460ff16620006aa576040517f08c379a0000000000000000000000000000000000000000000000000000000008152600401620006a190620019e9565b60405180910390fd5b600160008373ffffffffffffffffffffffffffffffffffffffff1673ffffffffffffffffffffffffffffffffffffffff16815260200190815260200160002060060160019054906101000a900473ffffffffffffffffffffffffffffffffffffffff1673ffffffffffffffffffffffffffffffffffffffff166351ff48476040518163ffffffff1660e01b8152600401602060405180830381865afa15801562000758573d6000803e3d6000fd5b505050506040513d601f19601f820116820180604052508101906200077e919062001a22565b9050919050565b60008060009054906101000a900473ffffffffffffffffffffffffffffffffffffffff16905090565b620007b862000f66565b600160008373ffffffffffffffffffffffffffffffffffffffff1673ffffffffffffffffffffffffffffffffffffffff16815260200190815260200160002060020160009054906101000a900460ff16156200084b576040517f08c379a0000000000000000000000000000000000000000000000000000000008152600401620008429062001aca565b60405180910390fd5b604051806101000160405280828152602001428152602001600115158152602001600081526020016000815260200160008152602001600015158152602001600073ffffffffffffffffffffffffffffffffffffffff16815250600160008473ffffffffffffffffffffffffffffffffffffffff1673ffffffffffffffffffffffffffffffffffffffff168152602001908152602001600020600082015181600001908051906020019062000902929190620010b7565b506020820151816001015560408201518160020160006101000a81548160ff021916908315150217905550606082015181600301556080820151816004015560a0820151816005015560c08201518160060160006101000a81548160ff02191690831515021790555060e08201518160060160016101000a81548173ffffffffffffffffffffffffffffffffffffffff021916908373ffffffffffffffffffffffffffffffffffffffff1602179055509050506002829080600181540180825580915050600190039060005260206000200160009091909190916101000a81548173ffffffffffffffffffffffffffffffffffffffff021916908373ffffffffffffffffffffffffffffffffffffffff1602179055507f927948467456f386be96283ad93519b24ab0c6e7920614aec64789679078d1c433838342600160008060405162000a57979695949392919062001b39565b60405180910390a15050565b6060600280548060200260200160405190810160405280929190818152602001828054801562000ae957602002820191906000526020600020905b8160009054906101000a900473ffffffffffffffffffffffffffffffffffffffff1673ffffffffffffffffffffffffffffffffffffffff168152602001906001019080831162000a9e575b5050505050905090565b62000afd62000f66565b62000b088662000493565b62000b4a576040517f08c379a000000000000000000000000000000000000000000000000000000000815260040162000b419062001c33565b60405180910390fd5b600160008773ffffffffffffffffffffffffffffffffffffffff1673ffffffffffffffffffffffffffffffffffffffff16815260200190815260200160002060060160009054906101000a900460ff161562000bdd576040517f08c379a000000000000000000000000000000000000000000000000000000000815260040162000bd49062001ca5565b60405180910390fd5b600086868686868660405162000bf39062001148565b62000c049695949392919062001cc7565b604051809103906000f08015801562000c21573d6000803e3d6000fd5b50905060018060008973ffffffffffffffffffffffffffffffffffffffff1673ffffffffffffffffffffffffffffffffffffffff16815260200190815260200160002060060160006101000a81548160ff02191690831515021790555080600160008973ffffffffffffffffffffffffffffffffffffffff1673ffffffffffffffffffffffffffffffffffffffff16815260200190815260200160002060060160016101000a81548173ffffffffffffffffffffffffffffffffffffffff021916908373ffffffffffffffffffffffffffffffffffffffff1602179055508073ffffffffffffffffffffffffffffffffffffffff1663f2fde38b336040518263ffffffff1660e01b815260040162000d3a9190620012f0565b600060405180830381600087803b15801562000d5557600080fd5b505af115801562000d6a573d6000803e3d6000fd5b5050505050505050505050565b62000d828262000493565b62000dc4576040517f08c379a000000000000000000000000000000000000000000000000000000000815260040162000dbb9062001d84565b60405180910390fd5b80600160008473ffffffffffffffffffffffffffffffffffffffff1673ffffffffffffffffffffffffffffffffffffffff168152602001908152602001600020600401600082825462000e18919062001dd5565b925050819055505050565b6000600280549050905090565b62000e3b8262000493565b62000e7d576040517f08c379a000000000000000000000000000000000000000000000000000000000815260040162000e749062001d84565b60405180910390fd5b80600160008473ffffffffffffffffffffffffffffffffffffffff1673ffffffffffffffffffffffffffffffffffffffff168152602001908152602001600020600501600082825462000ed1919062001dd5565b925050819055505050565b62000ee662000f66565b600073ffffffffffffffffffffffffffffffffffffffff168173ffffffffffffffffffffffffffffffffffffffff160362000f58576040517f08c379a000000000000000000000000000000000000000000000000000000000815260040162000f4f9062001ea8565b60405180910390fd5b62000f638162000feb565b50565b62000f70620010af565b73ffffffffffffffffffffffffffffffffffffffff1662000f9062000785565b73ffffffffffffffffffffffffffffffffffffffff161462000fe9576040517f08c379a000000000000000000000000000000000000000000000000000000000815260040162000fe09062001f1a565b60405180910390fd5b565b60008060009054906101000a900473ffffffffffffffffffffffffffffffffffffffff169050816000806101000a81548173ffffffffffffffffffffffffffffffffffffffff021916908373ffffffffffffffffffffffffffffffffffffffff1602179055508173ffffffffffffffffffffffffffffffffffffffff168173ffffffffffffffffffffffffffffffffffffffff167f8be0079c531659141344cd1fd0a4f28419497f9722a3daafe3b4186f6b6457e060405160405180910390a35050565b600033905090565b828054620010c59062001964565b90600052602060002090601f016020900481019282620010e9576000855562001135565b82601f106200110457805160ff191683800117855562001135565b8280016001018555821562001135579182015b828111156200113457825182559160200191906001019062001117565b5b50905062001144919062001156565b5090565b610d648062001f3d83390190565b5b808211156200117157600081600090555060010162001157565b5090565b6000604051905090565b600080fd5b600080fd5b600073ffffffffffffffffffffffffffffffffffffffff82169050919050565b6000620011b68262001189565b9050919050565b620011c881620011a9565b8114620011d457600080fd5b50565b600081359050620011e881620011bd565b92915050565b60008115159050919050565b6200120581620011ee565b81146200121157600080fd5b50565b6000813590506200122581620011fa565b92915050565b600080604083850312156200124557620012446200117f565b5b60006200125585828601620011d7565b9250506020620012688582860162001214565b9150509250929050565b6000819050919050565b620012878162001272565b81146200129357600080fd5b50565b600081359050620012a7816200127c565b92915050565b600060208284031215620012c657620012c56200117f565b5b6000620012d68482850162001296565b91505092915050565b620012ea81620011a9565b82525050565b6000602082019050620013076000830184620012df565b92915050565b6000602082840312156200132657620013256200117f565b5b60006200133684828501620011d7565b91505092915050565b6200134a81620011ee565b82525050565b60006020820190506200136760008301846200133f565b92915050565b600081519050919050565b600082825260208201905092915050565b60005b83811015620013a95780820151818401526020810190506200138c565b83811115620013b9576000848401525b50505050565b6000601f19601f8301169050919050565b6000620013dd826200136d565b620013e9818562001378565b9350620013fb81856020860162001389565b6200140681620013bf565b840191505092915050565b6200141c8162001272565b82525050565b60006101008201905081810360008301526200143f818b620013d0565b905062001450602083018a62001411565b6200145f60408301896200133f565b6200146e606083018862001411565b6200147d608083018762001411565b6200148c60a083018662001411565b6200149b60c08301856200133f565b620014aa60e0830184620012df565b9998505050505050505050565b600080fd5b600080fd5b7f4e487b7100000000000000000000000000000000000000000000000000000000600052604160045260246000fd5b620014fb82620013bf565b810181811067ffffffffffffffff821117156200151d576200151c620014c1565b5b80604052505050565b60006200153262001175565b9050620015408282620014f0565b919050565b600067ffffffffffffffff821115620015635762001562620014c1565b5b6200156e82620013bf565b9050602081019050919050565b82818337600083830152505050565b6000620015a16200159b8462001545565b62001526565b905082815260208101848484011115620015c057620015bf620014bc565b5b620015cd8482856200157b565b509392505050565b600082601f830112620015ed57620015ec620014b7565b5b8135620015ff8482602086016200158a565b91505092915050565b600080604083850312156200162257620016216200117f565b5b60006200163285828601620011d7565b925050602083013567ffffffffffffffff81111562001656576200165562001184565b5b6200166485828601620015d5565b9150509250929050565b600081519050919050565b600082825260208201905092915050565b6000819050602082019050919050565b620016a581620011a9565b82525050565b6000620016b983836200169a565b60208301905092915050565b6000602082019050919050565b6000620016df826200166e565b620016eb818562001679565b9350620016f8836200168a565b8060005b838110156200172f578151620017138882620016ab565b97506200172083620016c5565b925050600181019050620016fc565b5085935050505092915050565b60006020820190508181036000830152620017588184620016d2565b905092915050565b60008060008060008060c0878903121562001780576200177f6200117f565b5b60006200179089828a01620011d7565b9650506020620017a389828a0162001296565b9550506040620017b689828a0162001296565b9450506060620017c989828a0162001296565b9350506080620017dc89828a0162001296565b92505060a0620017ef89828a0162001296565b9150509295509295509295565b600080604083850312156200181657620018156200117f565b5b60006200182685828601620011d7565b9250506020620018398582860162001296565b9150509250929050565b60006020820190506200185a600083018462001411565b92915050565b7f4e657720696e766573746f722773207374617475732073686f756c642062652060008201527f646966666572656e742100000000000000000000000000000000000000000000602082015250565b6000620018be602a8362001378565b9150620018cb8262001860565b604082019050919050565b60006020820190508181036000830152620018f181620018af565b9050919050565b60006060820190506200190f6000830186620012df565b6200191e6020830185620012df565b6200192d60408301846200133f565b949350505050565b7f4e487b7100000000000000000000000000000000000000000000000000000000600052602260045260246000fd5b600060028204905060018216806200197d57607f821691505b60208210810362001993576200199262001935565b5b50919050565b7f496e766573746f7220686173206e6f20636f6e74726163742100000000000000600082015250565b6000620019d160198362001378565b9150620019de8262001999565b602082019050919050565b6000602082019050818103600083015262001a0481620019c2565b9050919050565b60008151905062001a1c81620011fa565b92915050565b60006020828403121562001a3b5762001a3a6200117f565b5b600062001a4b8482850162001a0b565b91505092915050565b7f496e766573746f7227732061646472657373206973207265676973746572656460008201527f2100000000000000000000000000000000000000000000000000000000000000602082015250565b600062001ab260218362001378565b915062001abf8262001a54565b604082019050919050565b6000602082019050818103600083015262001ae58162001aa3565b9050919050565b6000819050919050565b6000819050919050565b600062001b2162001b1b62001b158462001aec565b62001af6565b62001272565b9050919050565b62001b338162001b00565b82525050565b600060e08201905062001b50600083018a620012df565b62001b5f6020830189620012df565b818103604083015262001b738188620013d0565b905062001b84606083018762001411565b62001b9360808301866200133f565b62001ba260a083018562001b28565b62001bb160c083018462001b28565b98975050505050505050565b7f496e766573746f722077616c6c6574206973206e6f7420612076616c6964206360008201527f6f6e747261637400000000000000000000000000000000000000000000000000602082015250565b600062001c1b60278362001378565b915062001c288262001bbd565b604082019050919050565b6000602082019050818103600083015262001c4e8162001c0c565b9050919050565b7f5374617274757020686173206120636f6e747261637400000000000000000000600082015250565b600062001c8d60168362001378565b915062001c9a8262001c55565b602082019050919050565b6000602082019050818103600083015262001cc08162001c7e565b9050919050565b600060c08201905062001cde6000830189620012df565b62001ced602083018862001411565b62001cfc604083018762001411565b62001d0b606083018662001411565b62001d1a608083018562001411565b62001d2960a083018462001411565b979650505050505050565b7f496e766573746f72206e6f742072656769737465726564210000000000000000600082015250565b600062001d6c60188362001378565b915062001d798262001d34565b602082019050919050565b6000602082019050818103600083015262001d9f8162001d5d565b9050919050565b7f4e487b7100000000000000000000000000000000000000000000000000000000600052601160045260246000fd5b600062001de28262001272565b915062001def8362001272565b9250827fffffffffffffffffffffffffffffffffffffffffffffffffffffffffffffffff0382111562001e275762001e2662001da6565b5b828201905092915050565b7f4f776e61626c653a206e6577206f776e657220697320746865207a65726f206160008201527f6464726573730000000000000000000000000000000000000000000000000000602082015250565b600062001e9060268362001378565b915062001e9d8262001e32565b604082019050919050565b6000602082019050818103600083015262001ec38162001e81565b9050919050565b7f4f776e61626c653a2063616c6c6572206973206e6f7420746865206f776e6572600082015250565b600062001f0260208362001378565b915062001f0f8262001eca565b602082019050919050565b6000602082019050818103600083015262001f358162001ef3565b905091905056fe60806040523480156200001157600080fd5b5060405162000d6438038062000d648339818101604052810190620000379190620002cb565b620000576200004b6200015a60201b60201c565b6200016260201b60201c565b85600160006101000a81548173ffffffffffffffffffffffffffffffffffffffff021916908373ffffffffffffffffffffffffffffffffffffffff1602179055508460028190555083600381905550426004819055506000600560006101000a81548160ff0219169083151502179055508260068190555081600881905550806009819055507f7007ba4e1b77996a212434bda760646d3a01b4d163751c70c0195f039f8632d033600160009054906101000a900473ffffffffffffffffffffffffffffffffffffffff1660025460045460065460085460095460405162000146979695949392919062000389565b60405180910390a150505050505062000406565b600033905090565b60008060009054906101000a900473ffffffffffffffffffffffffffffffffffffffff169050816000806101000a81548173ffffffffffffffffffffffffffffffffffffffff021916908373ffffffffffffffffffffffffffffffffffffffff1602179055508173ffffffffffffffffffffffffffffffffffffffff168173ffffffffffffffffffffffffffffffffffffffff167f8be0079c531659141344cd1fd0a4f28419497f9722a3daafe3b4186f6b6457e060405160405180910390a35050565b600080fd5b600073ffffffffffffffffffffffffffffffffffffffff82169050919050565b600062000258826200022b565b9050919050565b6200026a816200024b565b81146200027657600080fd5b50565b6000815190506200028a816200025f565b92915050565b6000819050919050565b620002a58162000290565b8114620002b157600080fd5b50565b600081519050620002c5816200029a565b92915050565b60008060008060008060c08789031215620002eb57620002ea62000226565b5b6000620002fb89828a0162000279565b96505060206200030e89828a01620002b4565b95505060406200032189828a01620002b4565b94505060606200033489828a01620002b4565b93505060806200034789828a01620002b4565b92505060a06200035a89828a01620002b4565b9150509295509295509295565b62000372816200024b565b82525050565b620003838162000290565b82525050565b600060e082019050620003a0600083018a62000367565b620003af602083018962000367565b620003be604083018862000378565b620003cd606083018762000378565b620003dc608083018662000378565b620003eb60a083018562000378565b620003fa60c083018462000378565b98975050505050505050565b61094e80620004166000396000f3fe608060405234801561001057600080fd5b50600436106100cf5760003560e01c80637aa9c32a1161008c5780638da5cb5b116100665780638da5cb5b146101ba578063a6f7f5d6146101d8578063c24a0f8b146101f6578063f2fde38b14610214576100cf565b80637aa9c32a146101745780637c3a00fd1461017e57806381cb8ae11461019c576100cf565b80630fb5a6b4146100d4578063323046b1146100f257806345fbfbca1461011057806351ff48471461012e578063643aff0f1461014c578063715018a61461016a575b600080fd5b6100dc610230565b6040516100e991906105ef565b60405180910390f35b6100fa610236565b60405161010791906105ef565b60405180910390f35b61011861023c565b60405161012591906105ef565b60405180910390f35b610136610242565b6040516101439190610625565b60405180910390f35b610154610255565b6040516101619190610681565b60405180910390f35b61017261027b565b005b61017c61028f565b005b6101866103c8565b60405161019391906105ef565b60405180910390f35b6101a46103ce565b6040516101b191906105ef565b60405180910390f35b6101c26103d4565b6040516101cf9190610681565b60405180910390f35b6101e06103fd565b6040516101ed91906105ef565b60405180910390f35b6101fe610403565b60405161020b91906105ef565b60405180910390f35b61022e600480360381019061022991906106cd565b610409565b005b60085481565b60045481565b60025481565b600560009054906101000a900460ff1681565b600160009054906101000a900473ffffffffffffffffffffffffffffffffffffffff1681565b61028361048c565b61028d600061050a565b565b3373ffffffffffffffffffffffffffffffffffffffff16600160009054906101000a900473ffffffffffffffffffffffffffffffffffffffff1673ffffffffffffffffffffffffffffffffffffffff161461031f576040517f08c379a000000000000000000000000000000000000000000000000000000000815260040161031690610757565b60405180910390fd5b600560009054906101000a900460ff161561036f576040517f08c379a0000000000000000000000000000000000000000000000000000000008152600401610366906107c3565b60405180910390fd5b6001600560006101000a81548160ff0219169083151502179055507fe21af13e061ea0d637068fd172d57075690af2c7d6c696319a8d13c763009bf9336001426040516103be939291906107e3565b60405180910390a1565b60095481565b60065481565b60008060009054906101000a900473ffffffffffffffffffffffffffffffffffffffff16905090565b60035481565b60075481565b61041161048c565b600073ffffffffffffffffffffffffffffffffffffffff168173ffffffffffffffffffffffffffffffffffffffff1603610480576040517f08c379a00000000000000000000000000000000000000000000000000000000081526004016104779061088c565b60405180910390fd5b6104898161050a565b50565b6104946105ce565b73ffffffffffffffffffffffffffffffffffffffff166104b26103d4565b73ffffffffffffffffffffffffffffffffffffffff1614610508576040517f08c379a00000000000000000000000000000000000000000000000000000000081526004016104ff906108f8565b60405180910390fd5b565b60008060009054906101000a900473ffffffffffffffffffffffffffffffffffffffff169050816000806101000a81548173ffffffffffffffffffffffffffffffffffffffff021916908373ffffffffffffffffffffffffffffffffffffffff1602179055508173ffffffffffffffffffffffffffffffffffffffff168173ffffffffffffffffffffffffffffffffffffffff167f8be0079c531659141344cd1fd0a4f28419497f9722a3daafe3b4186f6b6457e060405160405180910390a35050565b600033905090565b6000819050919050565b6105e9816105d6565b82525050565b600060208201905061060460008301846105e0565b92915050565b60008115159050919050565b61061f8161060a565b82525050565b600060208201905061063a6000830184610616565b92915050565b600073ffffffffffffffffffffffffffffffffffffffff82169050919050565b600061066b82610640565b9050919050565b61067b81610660565b82525050565b60006020820190506106966000830184610672565b92915050565b600080fd5b6106aa81610660565b81146106b557600080fd5b50565b6000813590506106c7816106a1565b92915050565b6000602082840312156106e3576106e261069c565b5b60006106f1848285016106b8565b91505092915050565b600082825260208201905092915050565b7f4f6e6c7920696e766573746f722073686f756c64206163636570742100000000600082015250565b6000610741601c836106fa565b915061074c8261070b565b602082019050919050565b6000602082019050818103600083015261077081610734565b9050919050565b7f436f6e747261637420686173206265656e207369676e65642100000000000000600082015250565b60006107ad6019836106fa565b91506107b882610777565b602082019050919050565b600060208201905081810360008301526107dc816107a0565b9050919050565b60006060820190506107f86000830186610672565b6108056020830185610616565b61081260408301846105e0565b949350505050565b7f4f776e61626c653a206e6577206f776e657220697320746865207a65726f206160008201527f6464726573730000000000000000000000000000000000000000000000000000602082015250565b60006108766026836106fa565b91506108818261081a565b604082019050919050565b600060208201905081810360008301526108a581610869565b9050919050565b7f4f776e61626c653a2063616c6c6572206973206e6f7420746865206f776e6572600082015250565b60006108e26020836106fa565b91506108ed826108ac565b602082019050919050565b60006020820190508181036000830152610911816108d5565b905091905056fea2646970667358221220d433c4751876f763b7ab09f5ce4a463d904773511778ed0261b79b4d1c03f55164736f6c634300080e0033a26469706673582212209360135e8986e9dc2f66fed319f2e25fd4b10264edeb8b72e168bb0cda734dfd64736f6c634300080e0033",
  "immutableReferences": {},
  "source": "// SPDX-License-Identifier: MIT\r\npragma solidity ^0.8.14;\r\n\r\nimport \"./InvestorContract.sol\";\r\nimport \"@openzeppelin/contracts/access/Ownable.sol\";\r\n\r\ncontract InvestorsHandler is Ownable {\r\n\r\n    struct Investor{\r\n        string name;\r\n        uint registerDate;\r\n        bool status;\r\n        uint rating;\r\n        uint amountInvested; //total amount in DAI\r\n        uint termalReceived;\r\n        bool hasContract;\r\n        address investorContractAddress;\r\n    }\r\n\r\n    mapping (address => Investor) public investors;\r\n    address[] public investorList;\r\n\r\n    event LogCreateInvestor(address _creator, address _investorAddress, string _investorName, uint _registerDate, bool _status, uint _rating, uint _amountInvested);\r\n    event LogNewInvestorStatus(address _owner,  address _investorAddress, bool _status);\r\n\r\n    constructor(){\r\n    }\r\n\r\n    function createInvestor(address _investorAddress, \r\n                         string memory _investorName)\r\n        onlyOwner()\r\n        external\r\n    {\r\n        require(!investors[_investorAddress].status, \"Investor's address is registered!\");\r\n        investors[_investorAddress] = Investor(_investorName, block.timestamp, true, 0, 0, 0, false, address(0));\r\n        investorList.push(_investorAddress);\r\n        emit LogCreateInvestor(msg.sender, _investorAddress, _investorName, block.timestamp, true, 0, 0);\r\n    }\r\n\r\n    function createInvestorContract(\r\n            address _investorWallet, \r\n            uint _investment,\r\n            uint _managementFee,\r\n            uint _termalCoinRatio,\r\n            uint _duration,\r\n            uint _interestRate\r\n        )\r\n        onlyOwner()\r\n        external\r\n    {\r\n        require(isValidInvestor(_investorWallet), \"Investor wallet is not a valid contract\");\r\n        require(!investors[_investorWallet].hasContract, \"Startup has a contract\");\r\n        \r\n        InvestorContract newInvestorContract = new InvestorContract(\r\n            _investorWallet, \r\n            _investment,\r\n            _managementFee,\r\n            _termalCoinRatio,\r\n            _duration,\r\n            _interestRate\r\n        );\r\n\r\n        investors[_investorWallet].hasContract = true;\r\n        investors[_investorWallet].investorContractAddress = address(newInvestorContract);\r\n        newInvestorContract.transferOwnership(msg.sender);\r\n    }\r\n\r\n    function getSignatureStatus(address _investor)\r\n        public\r\n        view\r\n        returns (bool)\r\n    {\r\n        require(investors[_investor].hasContract, \"Investor has no contract!\");\r\n        return InvestorContract(investors[_investor].investorContractAddress).signature();\r\n    }\r\n\r\n    function isValidInvestor(address _investorAddress)\r\n        public\r\n        view\r\n        returns(bool)\r\n    {\r\n        return investors[_investorAddress].status;\r\n    }\r\n\r\n    function newInvestorStatus(address _investorAddress, bool _status)\r\n        onlyOwner()\r\n        public\r\n    {\r\n        require(investors[_investorAddress].status != _status, \"New investor's status should be different!\");\r\n        investors[_investorAddress].status = _status;\r\n        emit LogNewInvestorStatus(msg.sender, _investorAddress, _status);\r\n    }\r\n    \r\n    function getTotalInvestors()\r\n        external\r\n        view\r\n        returns (uint)\r\n    {\r\n        return investorList.length;\r\n    }\r\n\r\n    function getInvestors() external view returns (address[] memory) {\r\n        return investorList;\r\n    }\r\n\r\n    //event LogDepositDai(address _sender, address _receipent, uint _amount);\r\n    \r\n    // Move this function to Termal.sol\r\n    function addDepositDai(address _receiver, uint _amount) external {\r\n        require(isValidInvestor(_receiver), \"Investor not registered!\");\r\n        \r\n        investors[_receiver].amountInvested += _amount;\r\n    }\r\n\r\n    function addDepositTermal(address _receiver, uint _amount) external {\r\n        require(isValidInvestor(_receiver), \"Investor not registered!\");\r\n        \r\n        investors[_receiver].termalReceived += _amount;\r\n    }\r\n\r\n\r\n\r\n    // Move this function to Termal.sol\r\n    // This function allows to send termal from the contract to a user.\r\n    /*function transferTermal(address _receiver, uint _amount)\r\n        onlyOwner()\r\n        public\r\n    {\r\n        termalToken.transfer(_receiver, _amount);\r\n    }*/\r\n\r\n    //Move this function to Termal.sol\r\n    //This function returns the dai contract's balance\r\n    /*function getDaiContractBalance()\r\n        external\r\n        view\r\n        returns (uint)\r\n    {\r\n        return daiToken.balanceOf(address(this));\r\n    }*/\r\n\r\n    // Move this function to Termal.sol\r\n    //This function returns the Termal tottal supply\r\n    /*function getTermalTotalSupply()\r\n        external\r\n        view\r\n        returns (uint)\r\n    {\r\n        return termalToken.totalSupply();\r\n    } */\r\n\r\n    // Move this function to Termal.sol\r\n    /*function getTermalBalance(address _wallet)\r\n        external\r\n        view\r\n        returns (uint)\r\n    {\r\n        return termalToken.balanceOf(_wallet);\r\n    } */\r\n        \r\n}",
  "sourcePath": "/media/k2/DATA/web3/termal2/contracts/InvestorsHandler.sol",
  "compiler": {
    "name": "solc",
    "version": "0.8.14+commit.80d49f37.Emscripten.clang"
  },
  "schemaVersion": "3.4.6",
  "updatedAt": "2023-04-22T00:24:37.008Z",
  "networkType": "ethereum",
  "devdoc": {
    "kind": "dev",
    "methods": {
      "owner()": {
        "details": "Returns the address of the current owner."
      },
      "renounceOwnership()": {
        "details": "Leaves the contract without owner. It will not be possible to call `onlyOwner` functions anymore. Can only be called by the current owner. NOTE: Renouncing ownership will leave the contract without an owner, thereby removing any functionality that is only available to the owner."
      },
      "transferOwnership(address)": {
        "details": "Transfers ownership of the contract to a new account (`newOwner`). Can only be called by the current owner."
      }
    },
    "version": 1
  },
  "userdoc": {
    "kind": "user",
    "methods": {},
    "version": 1
  }
}