{
  "contractName": "InvestorContract",
  "abi": [
    {
      "inputs": [
        {
          "internalType": "address",
          "name": "_investorWallet",
          "type": "address"
        },
        {
          "internalType": "uint256",
          "name": "_investment",
          "type": "uint256"
        },
        {
          "internalType": "uint256",
          "name": "_managementFee",
          "type": "uint256"
        },
        {
          "internalType": "uint256",
          "name": "_termalCoinRatio",
          "type": "uint256"
        },
        {
          "internalType": "uint256",
          "name": "_duration",
          "type": "uint256"
        },
        {
          "internalType": "uint256",
          "name": "_interestRate",
          "type": "uint256"
        }
      ],
      "stateMutability": "nonpayable",
      "type": "constructor"
    },
    {
      "anonymous": false,
      "inputs": [
        {
          "indexed": false,
          "internalType": "address",
          "name": "_sender",
          "type": "address"
        },
        {
          "indexed": false,
          "internalType": "address",
          "name": "_investorWallet",
          "type": "address"
        },
        {
          "indexed": false,
          "internalType": "uint256",
          "name": "_initialInvestment",
          "type": "uint256"
        },
        {
          "indexed": false,
          "internalType": "uint256",
          "name": "_creationDate",
          "type": "uint256"
        },
        {
          "indexed": false,
          "internalType": "uint256",
          "name": "_termalCoinRatio",
          "type": "uint256"
        },
        {
          "indexed": false,
          "internalType": "uint256",
          "name": "_duration",
          "type": "uint256"
        },
        {
          "indexed": false,
          "internalType": "uint256",
          "name": "_interestRate",
          "type": "uint256"
        }
      ],
      "name": "LogContractCreation",
      "type": "event"
    },
    {
      "anonymous": false,
      "inputs": [
        {
          "indexed": false,
          "internalType": "address",
          "name": "_sender",
          "type": "address"
        },
        {
          "indexed": false,
          "internalType": "bool",
          "name": "_signature",
          "type": "bool"
        },
        {
          "indexed": false,
          "internalType": "uint256",
          "name": "_date",
          "type": "uint256"
        }
      ],
      "name": "LogInvestorSignature",
      "type": "event"
    },
    {
      "anonymous": false,
      "inputs": [
        {
          "indexed": true,
          "internalType": "address",
          "name": "previousOwner",
          "type": "address"
        },
        {
          "indexed": true,
          "internalType": "address",
          "name": "newOwner",
          "type": "address"
        }
      ],
      "name": "OwnershipTransferred",
      "type": "event"
    },
    {
      "inputs": [],
      "name": "date",
      "outputs": [
        {
          "internalType": "uint256",
          "name": "",
          "type": "uint256"
        }
      ],
      "stateMutability": "view",
      "type": "function"
    },
    {
      "inputs": [],
      "name": "duration",
      "outputs": [
        {
          "internalType": "uint256",
          "name": "",
          "type": "uint256"
        }
      ],
      "stateMutability": "view",
      "type": "function"
    },
    {
      "inputs": [],
      "name": "endDate",
      "outputs": [
        {
          "internalType": "uint256",
          "name": "",
          "type": "uint256"
        }
      ],
      "stateMutability": "view",
      "type": "function"
    },
    {
      "inputs": [],
      "name": "interestRate",
      "outputs": [
        {
          "internalType": "uint256",
          "name": "",
          "type": "uint256"
        }
      ],
      "stateMutability": "view",
      "type": "function"
    },
    {
      "inputs": [],
      "name": "investment",
      "outputs": [
        {
          "internalType": "uint256",
          "name": "",
          "type": "uint256"
        }
      ],
      "stateMutability": "view",
      "type": "function"
    },
    {
      "inputs": [],
      "name": "investorWallet",
      "outputs": [
        {
          "internalType": "address",
          "name": "",
          "type": "address"
        }
      ],
      "stateMutability": "view",
      "type": "function"
    },
    {
      "inputs": [],
      "name": "managementFee",
      "outputs": [
        {
          "internalType": "uint256",
          "name": "",
          "type": "uint256"
        }
      ],
      "stateMutability": "view",
      "type": "function"
    },
    {
      "inputs": [],
      "name": "owner",
      "outputs": [
        {
          "internalType": "address",
          "name": "",
          "type": "address"
        }
      ],
      "stateMutability": "view",
      "type": "function"
    },
    {
      "inputs": [],
      "name": "renounceOwnership",
      "outputs": [],
      "stateMutability": "nonpayable",
      "type": "function"
    },
    {
      "inputs": [],
      "name": "signature",
      "outputs": [
        {
          "internalType": "bool",
          "name": "",
          "type": "bool"
        }
      ],
      "stateMutability": "view",
      "type": "function"
    },
    {
      "inputs": [],
      "name": "termalCoinRatio",
      "outputs": [
        {
          "internalType": "uint256",
          "name": "",
          "type": "uint256"
        }
      ],
      "stateMutability": "view",
      "type": "function"
    },
    {
      "inputs": [
        {
          "internalType": "address",
          "name": "newOwner",
          "type": "address"
        }
      ],
      "name": "transferOwnership",
      "outputs": [],
      "stateMutability": "nonpayable",
      "type": "function"
    },
    {
      "inputs": [],
      "name": "investorSignature",
      "outputs": [],
      "stateMutability": "nonpayable",
      "type": "function"
    }
  ],
  "bytecode": "0x60806040523480156200001157600080fd5b5060405162000d6438038062000d648339818101604052810190620000379190620002cb565b620000576200004b6200015a60201b60201c565b6200016260201b60201c565b85600160006101000a81548173ffffffffffffffffffffffffffffffffffffffff021916908373ffffffffffffffffffffffffffffffffffffffff1602179055508460028190555083600381905550426004819055506000600560006101000a81548160ff0219169083151502179055508260068190555081600881905550806009819055507f7007ba4e1b77996a212434bda760646d3a01b4d163751c70c0195f039f8632d033600160009054906101000a900473ffffffffffffffffffffffffffffffffffffffff1660025460045460065460085460095460405162000146979695949392919062000389565b60405180910390a150505050505062000406565b600033905090565b60008060009054906101000a900473ffffffffffffffffffffffffffffffffffffffff169050816000806101000a81548173ffffffffffffffffffffffffffffffffffffffff021916908373ffffffffffffffffffffffffffffffffffffffff1602179055508173ffffffffffffffffffffffffffffffffffffffff168173ffffffffffffffffffffffffffffffffffffffff167f8be0079c531659141344cd1fd0a4f28419497f9722a3daafe3b4186f6b6457e060405160405180910390a35050565b600080fd5b600073ffffffffffffffffffffffffffffffffffffffff82169050919050565b600062000258826200022b565b9050919050565b6200026a816200024b565b81146200027657600080fd5b50565b6000815190506200028a816200025f565b92915050565b6000819050919050565b620002a58162000290565b8114620002b157600080fd5b50565b600081519050620002c5816200029a565b92915050565b60008060008060008060c08789031215620002eb57620002ea62000226565b5b6000620002fb89828a0162000279565b96505060206200030e89828a01620002b4565b95505060406200032189828a01620002b4565b94505060606200033489828a01620002b4565b93505060806200034789828a01620002b4565b92505060a06200035a89828a01620002b4565b9150509295509295509295565b62000372816200024b565b82525050565b620003838162000290565b82525050565b600060e082019050620003a0600083018a62000367565b620003af602083018962000367565b620003be604083018862000378565b620003cd606083018762000378565b620003dc608083018662000378565b620003eb60a083018562000378565b620003fa60c083018462000378565b98975050505050505050565b61094e80620004166000396000f3fe608060405234801561001057600080fd5b50600436106100cf5760003560e01c80637aa9c32a1161008c5780638da5cb5b116100665780638da5cb5b146101ba578063a6f7f5d6146101d8578063c24a0f8b146101f6578063f2fde38b14610214576100cf565b80637aa9c32a146101745780637c3a00fd1461017e57806381cb8ae11461019c576100cf565b80630fb5a6b4146100d4578063323046b1146100f257806345fbfbca1461011057806351ff48471461012e578063643aff0f1461014c578063715018a61461016a575b600080fd5b6100dc610230565b6040516100e991906105ef565b60405180910390f35b6100fa610236565b60405161010791906105ef565b60405180910390f35b61011861023c565b60405161012591906105ef565b60405180910390f35b610136610242565b6040516101439190610625565b60405180910390f35b610154610255565b6040516101619190610681565b60405180910390f35b61017261027b565b005b61017c61028f565b005b6101866103c8565b60405161019391906105ef565b60405180910390f35b6101a46103ce565b6040516101b191906105ef565b60405180910390f35b6101c26103d4565b6040516101cf9190610681565b60405180910390f35b6101e06103fd565b6040516101ed91906105ef565b60405180910390f35b6101fe610403565b60405161020b91906105ef565b60405180910390f35b61022e600480360381019061022991906106cd565b610409565b005b60085481565b60045481565b60025481565b600560009054906101000a900460ff1681565b600160009054906101000a900473ffffffffffffffffffffffffffffffffffffffff1681565b61028361048c565b61028d600061050a565b565b3373ffffffffffffffffffffffffffffffffffffffff16600160009054906101000a900473ffffffffffffffffffffffffffffffffffffffff1673ffffffffffffffffffffffffffffffffffffffff161461031f576040517f08c379a000000000000000000000000000000000000000000000000000000000815260040161031690610757565b60405180910390fd5b600560009054906101000a900460ff161561036f576040517f08c379a0000000000000000000000000000000000000000000000000000000008152600401610366906107c3565b60405180910390fd5b6001600560006101000a81548160ff0219169083151502179055507fe21af13e061ea0d637068fd172d57075690af2c7d6c696319a8d13c763009bf9336001426040516103be939291906107e3565b60405180910390a1565b60095481565b60065481565b60008060009054906101000a900473ffffffffffffffffffffffffffffffffffffffff16905090565b60035481565b60075481565b61041161048c565b600073ffffffffffffffffffffffffffffffffffffffff168173ffffffffffffffffffffffffffffffffffffffff1603610480576040517f08c379a00000000000000000000000000000000000000000000000000000000081526004016104779061088c565b60405180910390fd5b6104898161050a565b50565b6104946105ce565b73ffffffffffffffffffffffffffffffffffffffff166104b26103d4565b73ffffffffffffffffffffffffffffffffffffffff1614610508576040517f08c379a00000000000000000000000000000000000000000000000000000000081526004016104ff906108f8565b60405180910390fd5b565b60008060009054906101000a900473ffffffffffffffffffffffffffffffffffffffff169050816000806101000a81548173ffffffffffffffffffffffffffffffffffffffff021916908373ffffffffffffffffffffffffffffffffffffffff1602179055508173ffffffffffffffffffffffffffffffffffffffff168173ffffffffffffffffffffffffffffffffffffffff167f8be0079c531659141344cd1fd0a4f28419497f9722a3daafe3b4186f6b6457e060405160405180910390a35050565b600033905090565b6000819050919050565b6105e9816105d6565b82525050565b600060208201905061060460008301846105e0565b92915050565b60008115159050919050565b61061f8161060a565b82525050565b600060208201905061063a6000830184610616565b92915050565b600073ffffffffffffffffffffffffffffffffffffffff82169050919050565b600061066b82610640565b9050919050565b61067b81610660565b82525050565b60006020820190506106966000830184610672565b92915050565b600080fd5b6106aa81610660565b81146106b557600080fd5b50565b6000813590506106c7816106a1565b92915050565b6000602082840312156106e3576106e261069c565b5b60006106f1848285016106b8565b91505092915050565b600082825260208201905092915050565b7f4f6e6c7920696e766573746f722073686f756c64206163636570742100000000600082015250565b6000610741601c836106fa565b915061074c8261070b565b602082019050919050565b6000602082019050818103600083015261077081610734565b9050919050565b7f436f6e747261637420686173206265656e207369676e65642100000000000000600082015250565b60006107ad6019836106fa565b91506107b882610777565b602082019050919050565b600060208201905081810360008301526107dc816107a0565b9050919050565b60006060820190506107f86000830186610672565b6108056020830185610616565b61081260408301846105e0565b949350505050565b7f4f776e61626c653a206e6577206f776e657220697320746865207a65726f206160008201527f6464726573730000000000000000000000000000000000000000000000000000602082015250565b60006108766026836106fa565b91506108818261081a565b604082019050919050565b600060208201905081810360008301526108a581610869565b9050919050565b7f4f776e61626c653a2063616c6c6572206973206e6f7420746865206f776e6572600082015250565b60006108e26020836106fa565b91506108ed826108ac565b602082019050919050565b60006020820190508181036000830152610911816108d5565b905091905056fea2646970667358221220d433c4751876f763b7ab09f5ce4a463d904773511778ed0261b79b4d1c03f55164736f6c634300080e0033",
  "immutableReferences": {},
  "source": "// SPDX-License-Identifier: MIT\r\npragma solidity ^0.8.14;\r\n\r\nimport \"@openzeppelin/contracts/access/Ownable.sol\";\r\nimport \"@openzeppelin/contracts/utils/math/SafeMath.sol\";\r\n\r\ncontract InvestorContract is Ownable {\r\n    using SafeMath for uint256;\r\n\r\n    address public investorWallet;  // Investor public key\r\n    uint public investment;         // Amount in DAI\r\n    uint public managementFee;      // Initial management fees in DAI\r\n    uint public date;               // Investor's contract creation date\r\n    bool public signature;          // Investor's signature\r\n    uint public termalCoinRatio;    // Initial 1:1 ratio\r\n    uint public endDate;            // Investor contract end\r\n    uint public duration;           // 0 means undefined\r\n    uint public interestRate;       // 18% if not involved, 20% if involved\r\n    \r\n    event LogContractCreation(\r\n        address _sender, \r\n        address _investorWallet, \r\n        uint _initialInvestment, \r\n        uint _creationDate, \r\n        uint _termalCoinRatio,\r\n        uint _duration, \r\n        uint _interestRate\r\n        );\r\n    \r\n    event LogInvestorSignature(address _sender, bool _signature, uint _date);\r\n\r\n    constructor(\r\n            address _investorWallet,   // Investor's ethereum address\r\n            uint _investment,          // Funding total amount\r\n            uint _managementFee,       // Management fee\r\n            uint _termalCoinRatio,     // Termal token ratio\r\n            uint _duration,            // In months\r\n            uint _interestRate\r\n            )\r\n        {\r\n            investorWallet = _investorWallet;\r\n            investment = _investment;\r\n            managementFee = _managementFee;\r\n            date = block.timestamp;\r\n            signature = false; // This is false until investor accepts the contract.\r\n            termalCoinRatio = _termalCoinRatio;\r\n            duration = _duration;\r\n            interestRate = _interestRate;\r\n            // consider a new variable to approve the new investor\r\n            emit LogContractCreation(msg.sender, investorWallet, investment, date, termalCoinRatio, duration, interestRate);\r\n        }\r\n\r\n    //Startup has to sign to accept the contract\r\n    function investorSignature()\r\n        external\r\n    {\r\n        require(investorWallet == msg.sender, \"Only investor should accept!\");\r\n        require(!signature, \"Contract has been signed!\");\r\n        signature = true;\r\n\r\n        emit LogInvestorSignature(msg.sender, true, block.timestamp);\r\n    }\r\n}",
  "sourcePath": "/media/k2/DATA/web3/termal2/contracts/InvestorContract.sol",
  "compiler": {
    "name": "solc",
    "version": "0.8.14+commit.80d49f37.Emscripten.clang"
  },
  "schemaVersion": "3.4.6",
  "updatedAt": "2023-04-21T00:44:55.420Z",
  "devdoc": {
    "kind": "dev",
    "methods": {
      "owner()": {
        "details": "Returns the address of the current owner."
      },
      "renounceOwnership()": {
        "details": "Leaves the contract without owner. It will not be possible to call `onlyOwner` functions anymore. Can only be called by the current owner. NOTE: Renouncing ownership will leave the contract without an owner, thereby removing any functionality that is only available to the owner."
      },
      "transferOwnership(address)": {
        "details": "Transfers ownership of the contract to a new account (`newOwner`). Can only be called by the current owner."
      }
    },
    "version": 1
  },
  "userdoc": {
    "kind": "user",
    "methods": {},
    "version": 1
  }
}