{
  "contractName": "StartupContract",
  "abi": [
    {
      "inputs": [
        {
          "internalType": "address",
          "name": "_startupWallet",
          "type": "address"
        },
        {
          "internalType": "uint256",
          "name": "_initialLoan",
          "type": "uint256"
        },
        {
          "internalType": "uint256",
          "name": "_interestRate",
          "type": "uint256"
        },
        {
          "internalType": "uint256",
          "name": "_maxConvertionRate",
          "type": "uint256"
        },
        {
          "internalType": "uint256",
          "name": "_minConvertionRate",
          "type": "uint256"
        },
        {
          "internalType": "uint256",
          "name": "_termalCoinPercentage",
          "type": "uint256"
        },
        {
          "internalType": "uint256",
          "name": "_stableCoinPercentage",
          "type": "uint256"
        },
        {
          "internalType": "uint256",
          "name": "_maxProjectTime",
          "type": "uint256"
        },
        {
          "internalType": "uint256",
          "name": "_activeFee",
          "type": "uint256"
        }
      ],
      "stateMutability": "nonpayable",
      "type": "constructor"
    },
    {
      "anonymous": false,
      "inputs": [
        {
          "indexed": false,
          "internalType": "address",
          "name": "_startupProfile",
          "type": "address"
        },
        {
          "indexed": false,
          "internalType": "uint256",
          "name": "_initialLoan",
          "type": "uint256"
        },
        {
          "indexed": false,
          "internalType": "uint256",
          "name": "_date",
          "type": "uint256"
        },
        {
          "indexed": false,
          "internalType": "uint256",
          "name": "_interestRate",
          "type": "uint256"
        }
      ],
      "name": "LogContractCreation",
      "type": "event"
    },
    {
      "anonymous": false,
      "inputs": [
        {
          "indexed": false,
          "internalType": "address",
          "name": "_owner",
          "type": "address"
        },
        {
          "indexed": false,
          "internalType": "uint256",
          "name": "_fundingMonths",
          "type": "uint256"
        },
        {
          "indexed": false,
          "internalType": "uint256",
          "name": "_honeymoon",
          "type": "uint256"
        },
        {
          "indexed": false,
          "internalType": "uint256",
          "name": "_interestOnly",
          "type": "uint256"
        },
        {
          "indexed": false,
          "internalType": "uint256",
          "name": "_interestAndCapital",
          "type": "uint256"
        }
      ],
      "name": "LogSetMonths",
      "type": "event"
    },
    {
      "anonymous": false,
      "inputs": [
        {
          "indexed": false,
          "internalType": "address",
          "name": "_owner",
          "type": "address"
        },
        {
          "indexed": false,
          "internalType": "address",
          "name": "_newOwner",
          "type": "address"
        }
      ],
      "name": "LogSetNewOwner",
      "type": "event"
    },
    {
      "anonymous": false,
      "inputs": [
        {
          "indexed": false,
          "internalType": "address",
          "name": "_sender",
          "type": "address"
        },
        {
          "indexed": false,
          "internalType": "bool",
          "name": "_signature",
          "type": "bool"
        },
        {
          "indexed": false,
          "internalType": "address",
          "name": "_startupProfile",
          "type": "address"
        },
        {
          "indexed": false,
          "internalType": "uint256",
          "name": "",
          "type": "uint256"
        }
      ],
      "name": "LogStartupSingature",
      "type": "event"
    },
    {
      "anonymous": false,
      "inputs": [
        {
          "indexed": true,
          "internalType": "address",
          "name": "previousOwner",
          "type": "address"
        },
        {
          "indexed": true,
          "internalType": "address",
          "name": "newOwner",
          "type": "address"
        }
      ],
      "name": "OwnershipTransferred",
      "type": "event"
    },
    {
      "inputs": [],
      "name": "activeFee",
      "outputs": [
        {
          "internalType": "uint256",
          "name": "",
          "type": "uint256"
        }
      ],
      "stateMutability": "view",
      "type": "function"
    },
    {
      "inputs": [],
      "name": "date",
      "outputs": [
        {
          "internalType": "uint256",
          "name": "",
          "type": "uint256"
        }
      ],
      "stateMutability": "view",
      "type": "function"
    },
    {
      "inputs": [],
      "name": "fundingMonths",
      "outputs": [
        {
          "internalType": "uint256",
          "name": "",
          "type": "uint256"
        }
      ],
      "stateMutability": "view",
      "type": "function"
    },
    {
      "inputs": [],
      "name": "honeymoon",
      "outputs": [
        {
          "internalType": "uint256",
          "name": "",
          "type": "uint256"
        }
      ],
      "stateMutability": "view",
      "type": "function"
    },
    {
      "inputs": [],
      "name": "initialLoan",
      "outputs": [
        {
          "internalType": "uint256",
          "name": "",
          "type": "uint256"
        }
      ],
      "stateMutability": "view",
      "type": "function"
    },
    {
      "inputs": [],
      "name": "interestAndCapital",
      "outputs": [
        {
          "internalType": "uint256",
          "name": "",
          "type": "uint256"
        }
      ],
      "stateMutability": "view",
      "type": "function"
    },
    {
      "inputs": [],
      "name": "interestOnly",
      "outputs": [
        {
          "internalType": "uint256",
          "name": "",
          "type": "uint256"
        }
      ],
      "stateMutability": "view",
      "type": "function"
    },
    {
      "inputs": [],
      "name": "interestRate",
      "outputs": [
        {
          "internalType": "uint256",
          "name": "",
          "type": "uint256"
        }
      ],
      "stateMutability": "view",
      "type": "function"
    },
    {
      "inputs": [],
      "name": "maxConvertionRate",
      "outputs": [
        {
          "internalType": "uint256",
          "name": "",
          "type": "uint256"
        }
      ],
      "stateMutability": "view",
      "type": "function"
    },
    {
      "inputs": [],
      "name": "maxProjectTime",
      "outputs": [
        {
          "internalType": "uint256",
          "name": "",
          "type": "uint256"
        }
      ],
      "stateMutability": "view",
      "type": "function"
    },
    {
      "inputs": [],
      "name": "minConvertionRate",
      "outputs": [
        {
          "internalType": "uint256",
          "name": "",
          "type": "uint256"
        }
      ],
      "stateMutability": "view",
      "type": "function"
    },
    {
      "inputs": [],
      "name": "owner",
      "outputs": [
        {
          "internalType": "address",
          "name": "",
          "type": "address"
        }
      ],
      "stateMutability": "view",
      "type": "function"
    },
    {
      "inputs": [],
      "name": "renounceOwnership",
      "outputs": [],
      "stateMutability": "nonpayable",
      "type": "function"
    },
    {
      "inputs": [],
      "name": "signature",
      "outputs": [
        {
          "internalType": "bool",
          "name": "",
          "type": "bool"
        }
      ],
      "stateMutability": "view",
      "type": "function"
    },
    {
      "inputs": [],
      "name": "stableCoinPercentage",
      "outputs": [
        {
          "internalType": "uint256",
          "name": "",
          "type": "uint256"
        }
      ],
      "stateMutability": "view",
      "type": "function"
    },
    {
      "inputs": [],
      "name": "startupWallet",
      "outputs": [
        {
          "internalType": "address",
          "name": "",
          "type": "address"
        }
      ],
      "stateMutability": "view",
      "type": "function"
    },
    {
      "inputs": [],
      "name": "termalCoinPercentage",
      "outputs": [
        {
          "internalType": "uint256",
          "name": "",
          "type": "uint256"
        }
      ],
      "stateMutability": "view",
      "type": "function"
    },
    {
      "inputs": [
        {
          "internalType": "address",
          "name": "newOwner",
          "type": "address"
        }
      ],
      "name": "transferOwnership",
      "outputs": [],
      "stateMutability": "nonpayable",
      "type": "function"
    },
    {
      "inputs": [
        {
          "internalType": "uint256",
          "name": "_fundingMonths",
          "type": "uint256"
        },
        {
          "internalType": "uint256",
          "name": "_honeymoon",
          "type": "uint256"
        },
        {
          "internalType": "uint256",
          "name": "_interestOnly",
          "type": "uint256"
        },
        {
          "internalType": "uint256",
          "name": "_interestAndCapital",
          "type": "uint256"
        }
      ],
      "name": "setMonths",
      "outputs": [],
      "stateMutability": "nonpayable",
      "type": "function"
    },
    {
      "inputs": [],
      "name": "getTotalMonths",
      "outputs": [
        {
          "internalType": "uint256",
          "name": "",
          "type": "uint256"
        }
      ],
      "stateMutability": "view",
      "type": "function"
    },
    {
      "inputs": [],
      "name": "startupSignature",
      "outputs": [],
      "stateMutability": "nonpayable",
      "type": "function"
    }
  ],
  "bytecode": "0x60806040523480156200001157600080fd5b506040516200173a3803806200173a8339818101604052810190620000379190620004e2565b620000576200004b6200017f60201b60201c565b6200018760201b60201c565b88600160006101000a81548173ffffffffffffffffffffffffffffffffffffffff021916908373ffffffffffffffffffffffffffffffffffffffff16021790555087600281905550426003819055506000600460006101000a81548160ff021916908315150217905550866005819055508560068190555084600781905550836008819055508260098190555081600e81905550620001026003806004600c6200024b60201b60201c565b80600f819055507fd912e0db3997b8efa782c542ab3e167df8ac40330751f5c28e1d35632d6ffadf600160009054906101000a900473ffffffffffffffffffffffffffffffffffffffff16600254600354600554604051620001689493929190620005e3565b60405180910390a150505050505050505062000834565b600033905090565b60008060009054906101000a900473ffffffffffffffffffffffffffffffffffffffff169050816000806101000a81548173ffffffffffffffffffffffffffffffffffffffff021916908373ffffffffffffffffffffffffffffffffffffffff1602179055508173ffffffffffffffffffffffffffffffffffffffff168173ffffffffffffffffffffffffffffffffffffffff167f8be0079c531659141344cd1fd0a4f28419497f9722a3daafe3b4186f6b6457e060405160405180910390a35050565b6200025b6200036b60201b60201c565b6000620002778486620003fc60201b620007811790919060201c565b90506000620002958385620003fc60201b620007811790919060201c565b90506000620002b38284620003fc60201b620007811790919060201c565b9050600e54811115620002fd576040517f08c379a0000000000000000000000000000000000000000000000000000000008152600401620002f490620006b7565b60405180910390fd5b86600a8190555085600b8190555084600c8190555083600d819055507fd9d73219186308fb5cd0317d12fd0e326d925501063d4596d5e84dd1708c8ffa33600a54600b54600c54600d546040516200035a959493929190620006d9565b60405180910390a150505050505050565b6200037b6200017f60201b60201c565b73ffffffffffffffffffffffffffffffffffffffff16620003a16200041460201b60201c565b73ffffffffffffffffffffffffffffffffffffffff1614620003fa576040517f08c379a0000000000000000000000000000000000000000000000000000000008152600401620003f19062000786565b60405180910390fd5b565b600081836200040c9190620007d7565b905092915050565b60008060009054906101000a900473ffffffffffffffffffffffffffffffffffffffff16905090565b600080fd5b600073ffffffffffffffffffffffffffffffffffffffff82169050919050565b60006200046f8262000442565b9050919050565b620004818162000462565b81146200048d57600080fd5b50565b600081519050620004a18162000476565b92915050565b6000819050919050565b620004bc81620004a7565b8114620004c857600080fd5b50565b600081519050620004dc81620004b1565b92915050565b60008060008060008060008060006101208a8c0312156200050857620005076200043d565b5b6000620005188c828d0162000490565b99505060206200052b8c828d01620004cb565b98505060406200053e8c828d01620004cb565b9750506060620005518c828d01620004cb565b9650506080620005648c828d01620004cb565b95505060a0620005778c828d01620004cb565b94505060c06200058a8c828d01620004cb565b93505060e06200059d8c828d01620004cb565b925050610100620005b18c828d01620004cb565b9150509295985092959850929598565b620005cc8162000462565b82525050565b620005dd81620004a7565b82525050565b6000608082019050620005fa6000830187620005c1565b620006096020830186620005d2565b620006186040830185620005d2565b620006276060830184620005d2565b95945050505050565b600082825260208201905092915050565b7f53686f756c64206265206c657373206f7220657175616c20746f206d6178696d60008201527f756d2070726f6a6563742074696d650000000000000000000000000000000000602082015250565b60006200069f602f8362000630565b9150620006ac8262000641565b604082019050919050565b60006020820190508181036000830152620006d28162000690565b9050919050565b600060a082019050620006f06000830188620005c1565b620006ff6020830187620005d2565b6200070e6040830186620005d2565b6200071d6060830185620005d2565b6200072c6080830184620005d2565b9695505050505050565b7f4f776e61626c653a2063616c6c6572206973206e6f7420746865206f776e6572600082015250565b60006200076e60208362000630565b91506200077b8262000736565b602082019050919050565b60006020820190508181036000830152620007a1816200075f565b9050919050565b7f4e487b7100000000000000000000000000000000000000000000000000000000600052601160045260246000fd5b6000620007e482620004a7565b9150620007f183620004a7565b9250827fffffffffffffffffffffffffffffffffffffffffffffffffffffffffffffffff03821115620008295762000828620007a8565b5b828201905092915050565b610ef680620008446000396000f3fe608060405234801561001057600080fd5b50600436106101375760003560e01c806374cf105e116100b85780638da5cb5b1161007c5780638da5cb5b146102d4578063b19ea0a6146102f2578063b2e062c014610310578063b2e595271461032e578063d35f33bf1461034c578063f2fde38b1461036a57610137565b806374cf105e1461023e578063762672241461025c5780637c3a00fd1461027a5780637e28f99c1461029857806383fe2b3d146102b657610137565b80634f554dea116100ff5780634f554dea146101bc57806351ff4847146101da578063589ac562146101f85780636abb373214610216578063715018a61461023457610137565b80631b48a3211461013c578063323046b11461015a578063368d883014610178578063390c193d146101965780634f4d5c10146101b2575b600080fd5b610144610386565b60405161015191906108fa565b60405180910390f35b61016261038c565b60405161016f91906108fa565b60405180910390f35b610180610392565b60405161018d91906108fa565b60405180910390f35b6101b060048036038101906101ab9190610946565b610398565b005b6101ba610496565b005b6101c461061b565b6040516101d191906108fa565b60405180910390f35b6101e2610621565b6040516101ef91906109c8565b60405180910390f35b610200610634565b60405161020d91906108fa565b60405180910390f35b61021e61063a565b60405161022b9190610a24565b60405180910390f35b61023c610660565b005b610246610674565b60405161025391906108fa565b60405180910390f35b61026461067a565b60405161027191906108fa565b60405180910390f35b610282610680565b60405161028f91906108fa565b60405180910390f35b6102a0610686565b6040516102ad91906108fa565b60405180910390f35b6102be61068c565b6040516102cb91906108fa565b60405180910390f35b6102dc610692565b6040516102e99190610a24565b60405180910390f35b6102fa6106bb565b60405161030791906108fa565b60405180910390f35b6103186106c1565b60405161032591906108fa565b60405180910390f35b6103366106f2565b60405161034391906108fa565b60405180910390f35b6103546106f8565b60405161036191906108fa565b60405180910390f35b610384600480360381019061037f9190610a6b565b6106fe565b005b60025481565b60035481565b600a5481565b6103a0610797565b60006103b5848661078190919063ffffffff16565b905060006103cc838561078190919063ffffffff16565b905060006103e3828461078190919063ffffffff16565b9050600e5481111561042a576040517f08c379a000000000000000000000000000000000000000000000000000000000815260040161042190610b1b565b60405180910390fd5b86600a8190555085600b8190555084600c8190555083600d819055507fd9d73219186308fb5cd0317d12fd0e326d925501063d4596d5e84dd1708c8ffa33600a54600b54600c54600d54604051610485959493929190610b3b565b60405180910390a150505050505050565b3373ffffffffffffffffffffffffffffffffffffffff16600160009054906101000a900473ffffffffffffffffffffffffffffffffffffffff1673ffffffffffffffffffffffffffffffffffffffff1614610526576040517f08c379a000000000000000000000000000000000000000000000000000000000815260040161051d90610bda565b60405180910390fd5b600460009054906101000a900460ff1615610576576040517f08c379a000000000000000000000000000000000000000000000000000000000815260040161056d90610c46565b60405180910390fd5b60006105806106c1565b116105c0576040517f08c379a00000000000000000000000000000000000000000000000000000000081526004016105b790610cd8565b60405180910390fd5b6001600460006101000a81548160ff0219169083151502179055507f51a1a099cba9a81d06bf524f39eed0ce75f3ffdcdf2a0fcc2f83f04f80d65aca33600133426040516106119493929190610cf8565b60405180910390a1565b600c5481565b600460009054906101000a900460ff1681565b60095481565b600160009054906101000a900473ffffffffffffffffffffffffffffffffffffffff1681565b610668610797565b6106726000610815565b565b600e5481565b60085481565b60055481565b60075481565b600f5481565b60008060009054906101000a900473ffffffffffffffffffffffffffffffffffffffff16905090565b600d5481565b6000600d54600c54600b54600a546106d99190610d6c565b6106e39190610d6c565b6106ed9190610d6c565b905090565b600b5481565b60065481565b610706610797565b600073ffffffffffffffffffffffffffffffffffffffff168173ffffffffffffffffffffffffffffffffffffffff1603610775576040517f08c379a000000000000000000000000000000000000000000000000000000000815260040161076c90610e34565b60405180910390fd5b61077e81610815565b50565b6000818361078f9190610d6c565b905092915050565b61079f6108d9565b73ffffffffffffffffffffffffffffffffffffffff166107bd610692565b73ffffffffffffffffffffffffffffffffffffffff1614610813576040517f08c379a000000000000000000000000000000000000000000000000000000000815260040161080a90610ea0565b60405180910390fd5b565b60008060009054906101000a900473ffffffffffffffffffffffffffffffffffffffff169050816000806101000a81548173ffffffffffffffffffffffffffffffffffffffff021916908373ffffffffffffffffffffffffffffffffffffffff1602179055508173ffffffffffffffffffffffffffffffffffffffff168173ffffffffffffffffffffffffffffffffffffffff167f8be0079c531659141344cd1fd0a4f28419497f9722a3daafe3b4186f6b6457e060405160405180910390a35050565b600033905090565b6000819050919050565b6108f4816108e1565b82525050565b600060208201905061090f60008301846108eb565b92915050565b600080fd5b610923816108e1565b811461092e57600080fd5b50565b6000813590506109408161091a565b92915050565b600080600080608085870312156109605761095f610915565b5b600061096e87828801610931565b945050602061097f87828801610931565b935050604061099087828801610931565b92505060606109a187828801610931565b91505092959194509250565b60008115159050919050565b6109c2816109ad565b82525050565b60006020820190506109dd60008301846109b9565b92915050565b600073ffffffffffffffffffffffffffffffffffffffff82169050919050565b6000610a0e826109e3565b9050919050565b610a1e81610a03565b82525050565b6000602082019050610a396000830184610a15565b92915050565b610a4881610a03565b8114610a5357600080fd5b50565b600081359050610a6581610a3f565b92915050565b600060208284031215610a8157610a80610915565b5b6000610a8f84828501610a56565b91505092915050565b600082825260208201905092915050565b7f53686f756c64206265206c657373206f7220657175616c20746f206d6178696d60008201527f756d2070726f6a6563742074696d650000000000000000000000000000000000602082015250565b6000610b05602f83610a98565b9150610b1082610aa9565b604082019050919050565b60006020820190508181036000830152610b3481610af8565b9050919050565b600060a082019050610b506000830188610a15565b610b5d60208301876108eb565b610b6a60408301866108eb565b610b7760608301856108eb565b610b8460808301846108eb565b9695505050505050565b7f4f6e6c7920737461727475702073686f756c6420616363657074210000000000600082015250565b6000610bc4601b83610a98565b9150610bcf82610b8e565b602082019050919050565b60006020820190508181036000830152610bf381610bb7565b9050919050565b7f436f6e747261637420686173206265656e207369676e65642100000000000000600082015250565b6000610c30601983610a98565b9150610c3b82610bfa565b602082019050919050565b60006020820190508181036000830152610c5f81610c23565b9050919050565b7f546f74616c206d6f6e7468732073686f756c642062652067726561746572207460008201527f68616e207a65726f210000000000000000000000000000000000000000000000602082015250565b6000610cc2602983610a98565b9150610ccd82610c66565b604082019050919050565b60006020820190508181036000830152610cf181610cb5565b9050919050565b6000608082019050610d0d6000830187610a15565b610d1a60208301866109b9565b610d276040830185610a15565b610d3460608301846108eb565b95945050505050565b7f4e487b7100000000000000000000000000000000000000000000000000000000600052601160045260246000fd5b6000610d77826108e1565b9150610d82836108e1565b9250827fffffffffffffffffffffffffffffffffffffffffffffffffffffffffffffffff03821115610db757610db6610d3d565b5b828201905092915050565b7f4f776e61626c653a206e6577206f776e657220697320746865207a65726f206160008201527f6464726573730000000000000000000000000000000000000000000000000000602082015250565b6000610e1e602683610a98565b9150610e2982610dc2565b604082019050919050565b60006020820190508181036000830152610e4d81610e11565b9050919050565b7f4f776e61626c653a2063616c6c6572206973206e6f7420746865206f776e6572600082015250565b6000610e8a602083610a98565b9150610e9582610e54565b602082019050919050565b60006020820190508181036000830152610eb981610e7d565b905091905056fea2646970667358221220c101d2d808bdc40e4293aef37c58b4642ec3de7d2a60f00d88bdb13be4d6fe7d64736f6c634300080e0033",
  "immutableReferences": {},
  "source": "// SPDX-License-Identifier: MIT\r\npragma solidity ^0.8.14;\r\n\r\nimport \"@openzeppelin/contracts/access/Ownable.sol\";\r\nimport \"@openzeppelin/contracts/utils/math/SafeMath.sol\";\r\n\r\ncontract StartupContract is Ownable {\r\n    using SafeMath for uint256;\r\n\r\n    address public startupWallet;\r\n    uint public initialLoan; //Amount in USD\r\n    uint public date;\r\n    bool public signature;\r\n    uint public interestRate; //% management fee\r\n    uint public maxConvertionRate;\r\n    uint public minConvertionRate;\r\n    uint public termalCoinPercentage;\r\n    uint public stableCoinPercentage;\r\n    uint public fundingMonths; \r\n    uint public honeymoon; //Months without payments\r\n    uint public interestOnly; //Interest only Months\r\n    uint public interestAndCapital; //Interes and capital payments\r\n    uint public maxProjectTime;\r\n    uint public activeFee;\r\n    \r\n    event LogContractCreation(address _startupProfile, uint _initialLoan, uint _date, uint _interestRate);\r\n    event LogStartupSingature(address _sender, bool _signature, address _startupProfile, uint);\r\n    event LogSetNewOwner(address _owner, address _newOwner);\r\n    \r\n    event LogSetMonths(address _owner, uint _fundingMonths, uint _honeymoon, uint _interestOnly, uint _interestAndCapital);\r\n    \r\n    constructor(\r\n            address _startupWallet,\r\n            uint _initialLoan,          \r\n            uint _interestRate,         \r\n            uint _maxConvertionRate,\r\n            uint _minConvertionRate,\r\n            uint _termalCoinPercentage,\r\n            uint _stableCoinPercentage,\r\n            uint _maxProjectTime,\r\n            uint _activeFee\r\n            )\r\n        {\r\n            startupWallet = _startupWallet; // Startup public key\r\n            initialLoan = _initialLoan;     // Initial loan without interests\r\n            date = block.timestamp;         // Current date\r\n            signature = false;              // This is false until startup accepts the contract.\r\n            interestRate = _interestRate;   // Managemet feee\r\n            maxConvertionRate = _maxConvertionRate; // Maximum convertion rate\r\n            minConvertionRate = _minConvertionRate; // Minimum convertion rate\r\n            termalCoinPercentage = _termalCoinPercentage; // Percentage of termal coins granted to the startup\r\n            stableCoinPercentage = _stableCoinPercentage; // Percentage of the stable coin granted to the startup\r\n            maxProjectTime = _maxProjectTime;             // Maximum total duration of the program\r\n            setMonths(3, 3, 4, 12);                       // Standar number of months\r\n            activeFee = _activeFee;                       // Percentage interest per year\r\n            emit LogContractCreation(startupWallet, initialLoan, date, interestRate);\r\n        }\r\n\r\n    function setMonths(uint _fundingMonths, uint _honeymoon, uint _interestOnly, uint _interestAndCapital)\r\n        onlyOwner()\r\n        public\r\n    {\r\n        uint sum1 = _fundingMonths.add(_honeymoon);\r\n        uint sum2 = _interestOnly.add(_interestAndCapital);\r\n        uint sum3 = sum1.add(sum2);\r\n\r\n        require(sum3 <= maxProjectTime, \"Should be less or equal to maximum project time\");\r\n        \r\n        fundingMonths = _fundingMonths;\r\n        honeymoon = _honeymoon;\r\n        interestOnly = _interestOnly;\r\n        interestAndCapital = _interestAndCapital;\r\n\r\n        emit LogSetMonths(msg.sender, fundingMonths, honeymoon, interestOnly, interestAndCapital);\r\n    }\r\n\r\n    //Total contract duration\r\n    function getTotalMonths() \r\n        public \r\n        view\r\n        returns (uint)\r\n    {\r\n        return (fundingMonths + honeymoon + interestOnly + interestAndCapital);\r\n    }\r\n\r\n    //Startup has to sign to accept the contract\r\n    function startupSignature()\r\n        external\r\n    {\r\n        require(startupWallet == msg.sender, \"Only startup should accept!\");\r\n        require(!signature, \"Contract has been signed!\");\r\n        require(getTotalMonths() > 0, \"Total months should be greater than zero!\" );\r\n        signature = true;\r\n\r\n        emit LogStartupSingature(msg.sender, true, msg.sender, block.timestamp);\r\n    }\r\n}",
  "sourcePath": "/media/k2/DATA/web3/termal2/contracts/StartupContract.sol",
  "compiler": {
    "name": "solc",
    "version": "0.8.14+commit.80d49f37.Emscripten.clang"
  },
  "schemaVersion": "3.4.6",
  "updatedAt": "2023-04-21T00:44:55.496Z",
  "devdoc": {
    "kind": "dev",
    "methods": {
      "owner()": {
        "details": "Returns the address of the current owner."
      },
      "renounceOwnership()": {
        "details": "Leaves the contract without owner. It will not be possible to call `onlyOwner` functions anymore. Can only be called by the current owner. NOTE: Renouncing ownership will leave the contract without an owner, thereby removing any functionality that is only available to the owner."
      },
      "transferOwnership(address)": {
        "details": "Transfers ownership of the contract to a new account (`newOwner`). Can only be called by the current owner."
      }
    },
    "version": 1
  },
  "userdoc": {
    "kind": "user",
    "methods": {},
    "version": 1
  }
}