{
  "contractName": "StartupsHandler",
  "abi": [
    {
      "inputs": [],
      "stateMutability": "nonpayable",
      "type": "constructor"
    },
    {
      "anonymous": false,
      "inputs": [
        {
          "indexed": false,
          "internalType": "address",
          "name": "_newStartupAddress",
          "type": "address"
        },
        {
          "indexed": false,
          "internalType": "address",
          "name": "_owner",
          "type": "address"
        }
      ],
      "name": "LogCreateStartup",
      "type": "event"
    },
    {
      "anonymous": false,
      "inputs": [
        {
          "indexed": false,
          "internalType": "address",
          "name": "_owner",
          "type": "address"
        },
        {
          "indexed": false,
          "internalType": "address",
          "name": "_startupAddress",
          "type": "address"
        },
        {
          "indexed": false,
          "internalType": "bool",
          "name": "_status",
          "type": "bool"
        }
      ],
      "name": "LogNewStartupStatus",
      "type": "event"
    },
    {
      "anonymous": false,
      "inputs": [
        {
          "indexed": false,
          "internalType": "address",
          "name": "_sender",
          "type": "address"
        },
        {
          "indexed": false,
          "internalType": "address",
          "name": "_contract",
          "type": "address"
        },
        {
          "indexed": false,
          "internalType": "uint256",
          "name": "_amount",
          "type": "uint256"
        }
      ],
      "name": "LogReturnTermal",
      "type": "event"
    },
    {
      "anonymous": false,
      "inputs": [
        {
          "indexed": true,
          "internalType": "address",
          "name": "previousOwner",
          "type": "address"
        },
        {
          "indexed": true,
          "internalType": "address",
          "name": "newOwner",
          "type": "address"
        }
      ],
      "name": "OwnershipTransferred",
      "type": "event"
    },
    {
      "inputs": [],
      "name": "owner",
      "outputs": [
        {
          "internalType": "address",
          "name": "",
          "type": "address"
        }
      ],
      "stateMutability": "view",
      "type": "function",
      "constant": true
    },
    {
      "inputs": [],
      "name": "renounceOwnership",
      "outputs": [],
      "stateMutability": "nonpayable",
      "type": "function"
    },
    {
      "inputs": [
        {
          "internalType": "uint256",
          "name": "",
          "type": "uint256"
        }
      ],
      "name": "startupList",
      "outputs": [
        {
          "internalType": "address",
          "name": "",
          "type": "address"
        }
      ],
      "stateMutability": "view",
      "type": "function",
      "constant": true
    },
    {
      "inputs": [
        {
          "internalType": "address",
          "name": "",
          "type": "address"
        }
      ],
      "name": "startupToken",
      "outputs": [
        {
          "internalType": "address",
          "name": "tokenAddress",
          "type": "address"
        },
        {
          "internalType": "uint256",
          "name": "balance",
          "type": "uint256"
        }
      ],
      "stateMutability": "view",
      "type": "function",
      "constant": true
    },
    {
      "inputs": [
        {
          "internalType": "address",
          "name": "",
          "type": "address"
        }
      ],
      "name": "startups",
      "outputs": [
        {
          "internalType": "string",
          "name": "name",
          "type": "string"
        },
        {
          "internalType": "uint256",
          "name": "registerDate",
          "type": "uint256"
        },
        {
          "internalType": "bool",
          "name": "status",
          "type": "bool"
        },
        {
          "internalType": "bool",
          "name": "hasContract",
          "type": "bool"
        },
        {
          "internalType": "address",
          "name": "startupContractAddress",
          "type": "address"
        },
        {
          "internalType": "uint256",
          "name": "amountTermal",
          "type": "uint256"
        },
        {
          "internalType": "uint256",
          "name": "daiReceived",
          "type": "uint256"
        },
        {
          "internalType": "uint256",
          "name": "daiReturned",
          "type": "uint256"
        },
        {
          "internalType": "uint256",
          "name": "termalReturned",
          "type": "uint256"
        },
        {
          "internalType": "address",
          "name": "token",
          "type": "address"
        }
      ],
      "stateMutability": "view",
      "type": "function",
      "constant": true
    },
    {
      "inputs": [
        {
          "internalType": "address",
          "name": "newOwner",
          "type": "address"
        }
      ],
      "name": "transferOwnership",
      "outputs": [],
      "stateMutability": "nonpayable",
      "type": "function"
    },
    {
      "inputs": [
        {
          "internalType": "address",
          "name": "_startupWallet",
          "type": "address"
        },
        {
          "internalType": "string",
          "name": "_startupName",
          "type": "string"
        },
        {
          "internalType": "address",
          "name": "tokenAddress",
          "type": "address"
        }
      ],
      "name": "createStartup",
      "outputs": [],
      "stateMutability": "nonpayable",
      "type": "function"
    },
    {
      "inputs": [
        {
          "internalType": "address",
          "name": "_startupWallet",
          "type": "address"
        },
        {
          "internalType": "uint256",
          "name": "_initialLoan",
          "type": "uint256"
        },
        {
          "internalType": "uint256",
          "name": "_interestRate",
          "type": "uint256"
        },
        {
          "internalType": "uint256",
          "name": "_maxConvertionRate",
          "type": "uint256"
        },
        {
          "internalType": "uint256",
          "name": "_minConvertionRate",
          "type": "uint256"
        },
        {
          "internalType": "uint256",
          "name": "_termalCoinPercentage",
          "type": "uint256"
        },
        {
          "internalType": "uint256",
          "name": "_stableCoinPercentage",
          "type": "uint256"
        },
        {
          "internalType": "uint256",
          "name": "_maxProjectime",
          "type": "uint256"
        },
        {
          "internalType": "uint256",
          "name": "_activeFee",
          "type": "uint256"
        }
      ],
      "name": "createStartupContract",
      "outputs": [],
      "stateMutability": "nonpayable",
      "type": "function"
    },
    {
      "inputs": [
        {
          "internalType": "address",
          "name": "_startupAddress",
          "type": "address"
        }
      ],
      "name": "isValidStartup",
      "outputs": [
        {
          "internalType": "bool",
          "name": "",
          "type": "bool"
        }
      ],
      "stateMutability": "view",
      "type": "function",
      "constant": true
    },
    {
      "inputs": [],
      "name": "getTotalStartups",
      "outputs": [
        {
          "internalType": "uint256",
          "name": "",
          "type": "uint256"
        }
      ],
      "stateMutability": "view",
      "type": "function",
      "constant": true
    },
    {
      "inputs": [
        {
          "internalType": "address",
          "name": "_startupAddress",
          "type": "address"
        },
        {
          "internalType": "bool",
          "name": "_status",
          "type": "bool"
        }
      ],
      "name": "newStartupStatus",
      "outputs": [],
      "stateMutability": "nonpayable",
      "type": "function"
    },
    {
      "inputs": [
        {
          "internalType": "address",
          "name": "_startup",
          "type": "address"
        }
      ],
      "name": "getStartupTokenAddress",
      "outputs": [
        {
          "internalType": "address",
          "name": "",
          "type": "address"
        }
      ],
      "stateMutability": "view",
      "type": "function",
      "constant": true
    },
    {
      "inputs": [
        {
          "internalType": "address",
          "name": "_startup",
          "type": "address"
        }
      ],
      "name": "getSignatureStatus",
      "outputs": [
        {
          "internalType": "bool",
          "name": "",
          "type": "bool"
        }
      ],
      "stateMutability": "view",
      "type": "function",
      "constant": true
    },
    {
      "inputs": [
        {
          "internalType": "address",
          "name": "_receiver",
          "type": "address"
        },
        {
          "internalType": "uint256",
          "name": "_amount",
          "type": "uint256"
        }
      ],
      "name": "addDepositDai",
      "outputs": [],
      "stateMutability": "nonpayable",
      "type": "function"
    },
    {
      "inputs": [
        {
          "internalType": "address",
          "name": "_receiver",
          "type": "address"
        },
        {
          "internalType": "uint256",
          "name": "_amount",
          "type": "uint256"
        }
      ],
      "name": "addReturnedDai",
      "outputs": [],
      "stateMutability": "nonpayable",
      "type": "function"
    },
    {
      "inputs": [
        {
          "internalType": "address",
          "name": "_receiver",
          "type": "address"
        },
        {
          "internalType": "uint256",
          "name": "_amount",
          "type": "uint256"
        }
      ],
      "name": "addReturnedTermal",
      "outputs": [],
      "stateMutability": "nonpayable",
      "type": "function"
    }
  ],
  "bytecode": "0x608060405234801561001057600080fd5b5061002d61002261003260201b60201c565b61003a60201b60201c565b6100fe565b600033905090565b60008060009054906101000a900473ffffffffffffffffffffffffffffffffffffffff169050816000806101000a81548173ffffffffffffffffffffffffffffffffffffffff021916908373ffffffffffffffffffffffffffffffffffffffff1602179055508173ffffffffffffffffffffffffffffffffffffffff168173ffffffffffffffffffffffffffffffffffffffff167f8be0079c531659141344cd1fd0a4f28419497f9722a3daafe3b4186f6b6457e060405160405180910390a35050565b6137c3806200010e6000396000f3fe60806040523480156200001157600080fd5b5060043610620001185760003560e01c8063b82e412c11620000a5578063ed6ba4dd116200006f578063ed6ba4dd146200031b578063f2fde38b146200033b578063f460694e146200035b578063fed8c236146200037b5762000118565b8063b82e412c1462000265578063c63208a414620002a4578063cf48a1da14620002c4578063e036264414620002fb5762000118565b8063715018a611620000e7578063715018a614620001cb57806375126d6414620001d75780638da5cb5b146200020d578063b50de789146200022f5762000118565b806301670f5d146200011d57806303bd9430146200013f57806324a9caa014620001755780632aec4e6a14620001ab575b600080fd5b620001276200039b565b6040516200013691906200138a565b60405180910390f35b6200015d6004803603810190620001579190620013ec565b620003a8565b6040516200016c919062001463565b60405180910390f35b6200019360048036038101906200018d9190620014b1565b620003e8565b604051620001a2919062001500565b60405180910390f35b620001c96004803603810190620001c391906200154e565b62000441565b005b620001d56200057e565b005b620001f56004803603810190620001ef9190620014b1565b62000596565b60405162000204919062001500565b60405180910390f35b62000217620006c0565b60405162000226919062001463565b60405180910390f35b6200024d6004803603810190620002479190620014b1565b620006e9565b6040516200025c919062001463565b60405180910390f35b6200028360048036038101906200027d9190620014b1565b620007a2565b6040516200029b9a9998979695949392919062001639565b60405180910390f35b620002c26004803603810190620002bc9190620016f0565b620008e0565b005b620002e26004803603810190620002dc9190620014b1565b6200098c565b604051620002f292919062001737565b60405180910390f35b62000319600480360381019062000313919062001764565b620009d0565b005b620003396004803603810190620003339190620016f0565b62000c5e565b005b620003596004803603810190620003539190620014b1565b62000d0a565b005b62000379600480360381019062000373919062001994565b62000d94565b005b620003996004803603810190620003939190620016f0565b620010b4565b005b6000600380549050905090565b60038181548110620003b957600080fd5b906000526020600020016000915054906101000a900473ffffffffffffffffffffffffffffffffffffffff1681565b6000600260008373ffffffffffffffffffffffffffffffffffffffff1673ffffffffffffffffffffffffffffffffffffffff16815260200190815260200160002060020160009054906101000a900460ff169050919050565b6200044b62001160565b801515600260008473ffffffffffffffffffffffffffffffffffffffff1673ffffffffffffffffffffffffffffffffffffffff16815260200190815260200160002060020160009054906101000a900460ff16151503620004e3576040517f08c379a0000000000000000000000000000000000000000000000000000000008152600401620004da9062001a85565b60405180910390fd5b80600260008473ffffffffffffffffffffffffffffffffffffffff1673ffffffffffffffffffffffffffffffffffffffff16815260200190815260200160002060020160006101000a81548160ff0219169083151502179055507f8083c265edfbf4990ea1d34acae1ca957ae66839c462c223de6cdb26f30cfbd4338383604051620005729392919062001aa7565b60405180910390a15050565b6200058862001160565b620005946000620011e5565b565b6000620005a382620003e8565b620005e5576040517f08c379a0000000000000000000000000000000000000000000000000000000008152600401620005dc9062001b34565b60405180910390fd5b600260008373ffffffffffffffffffffffffffffffffffffffff1673ffffffffffffffffffffffffffffffffffffffff16815260200190815260200160002060020160029054906101000a900473ffffffffffffffffffffffffffffffffffffffff1673ffffffffffffffffffffffffffffffffffffffff166351ff48476040518163ffffffff1660e01b8152600401602060405180830381865afa15801562000693573d6000803e3d6000fd5b505050506040513d601f19601f82011682018060405250810190620006b9919062001b6d565b9050919050565b60008060009054906101000a900473ffffffffffffffffffffffffffffffffffffffff16905090565b6000620006f682620003e8565b62000738576040517f08c379a00000000000000000000000000000000000000000000000000000000081526004016200072f9062001b34565b60405180910390fd5b600260008373ffffffffffffffffffffffffffffffffffffffff1673ffffffffffffffffffffffffffffffffffffffff16815260200190815260200160002060070160009054906101000a900473ffffffffffffffffffffffffffffffffffffffff169050919050565b6002602052806000526040600020600091509050806000018054620007c79062001bce565b80601f0160208091040260200160405190810160405280929190818152602001828054620007f59062001bce565b8015620008465780601f106200081a5761010080835404028352916020019162000846565b820191906000526020600020905b8154815290600101906020018083116200082857829003601f168201915b5050505050908060010154908060020160009054906101000a900460ff16908060020160019054906101000a900460ff16908060020160029054906101000a900473ffffffffffffffffffffffffffffffffffffffff16908060030154908060040154908060050154908060060154908060070160009054906101000a900473ffffffffffffffffffffffffffffffffffffffff1690508a565b620008eb82620003e8565b6200092d576040517f08c379a0000000000000000000000000000000000000000000000000000000008152600401620009249062001c53565b60405180910390fd5b80600260008473ffffffffffffffffffffffffffffffffffffffff1673ffffffffffffffffffffffffffffffffffffffff168152602001908152602001600020600401600082825462000981919062001ca4565b925050819055505050565b60016020528060005260406000206000915090508060000160009054906101000a900473ffffffffffffffffffffffffffffffffffffffff16908060010154905082565b620009da62001160565b620009e589620003e8565b62000a27576040517f08c379a000000000000000000000000000000000000000000000000000000000815260040162000a1e9062001d77565b60405180910390fd5b600260008a73ffffffffffffffffffffffffffffffffffffffff1673ffffffffffffffffffffffffffffffffffffffff16815260200190815260200160002060020160019054906101000a900460ff161562000aba576040517f08c379a000000000000000000000000000000000000000000000000000000000815260040162000ab19062001de9565b60405180910390fd5b600089898989898989898960405162000ad390620012b1565b62000ae79998979695949392919062001e0b565b604051809103906000f08015801562000b04573d6000803e3d6000fd5b5090506001600260008c73ffffffffffffffffffffffffffffffffffffffff1673ffffffffffffffffffffffffffffffffffffffff16815260200190815260200160002060020160016101000a81548160ff02191690831515021790555080600260008c73ffffffffffffffffffffffffffffffffffffffff1673ffffffffffffffffffffffffffffffffffffffff16815260200190815260200160002060020160026101000a81548173ffffffffffffffffffffffffffffffffffffffff021916908373ffffffffffffffffffffffffffffffffffffffff1602179055508073ffffffffffffffffffffffffffffffffffffffff1663f2fde38b336040518263ffffffff1660e01b815260040162000c1e919062001463565b600060405180830381600087803b15801562000c3957600080fd5b505af115801562000c4e573d6000803e3d6000fd5b5050505050505050505050505050565b62000c6982620003e8565b62000cab576040517f08c379a000000000000000000000000000000000000000000000000000000000815260040162000ca29062001b34565b60405180910390fd5b80600260008473ffffffffffffffffffffffffffffffffffffffff1673ffffffffffffffffffffffffffffffffffffffff168152602001908152602001600020600501600082825462000cff919062001ca4565b925050819055505050565b62000d1462001160565b600073ffffffffffffffffffffffffffffffffffffffff168173ffffffffffffffffffffffffffffffffffffffff160362000d86576040517f08c379a000000000000000000000000000000000000000000000000000000000815260040162000d7d9062001f20565b60405180910390fd5b62000d9181620011e5565b50565b62000d9e62001160565b600260008473ffffffffffffffffffffffffffffffffffffffff1673ffffffffffffffffffffffffffffffffffffffff16815260200190815260200160002060020160009054906101000a900460ff161562000e31576040517f08c379a000000000000000000000000000000000000000000000000000000000815260040162000e289062001f92565b60405180910390fd5b604051806101400160405280838152602001428152602001600115158152602001600015158152602001600073ffffffffffffffffffffffffffffffffffffffff168152602001600081526020016000815260200160008152602001600081526020018273ffffffffffffffffffffffffffffffffffffffff16815250600260008573ffffffffffffffffffffffffffffffffffffffff1673ffffffffffffffffffffffffffffffffffffffff168152602001908152602001600020600082015181600001908051906020019062000f0b929190620012bf565b506020820151816001015560408201518160020160006101000a81548160ff02191690831515021790555060608201518160020160016101000a81548160ff02191690831515021790555060808201518160020160026101000a81548173ffffffffffffffffffffffffffffffffffffffff021916908373ffffffffffffffffffffffffffffffffffffffff16021790555060a0820151816003015560c0820151816004015560e0820151816005015561010082015181600601556101208201518160070160006101000a81548173ffffffffffffffffffffffffffffffffffffffff021916908373ffffffffffffffffffffffffffffffffffffffff1602179055509050506003839080600181540180825580915050600190039060005260206000200160009091909190916101000a81548173ffffffffffffffffffffffffffffffffffffffff021916908373ffffffffffffffffffffffffffffffffffffffff1602179055507f9c01fa4ff82148506de685ddc052bf11c9682218084bc9850ee6865937631cbf8333604051620010a792919062001fb4565b60405180910390a1505050565b620010bf82620003e8565b62001101576040517f08c379a0000000000000000000000000000000000000000000000000000000008152600401620010f89062001b34565b60405180910390fd5b80600260008473ffffffffffffffffffffffffffffffffffffffff1673ffffffffffffffffffffffffffffffffffffffff168152602001908152602001600020600601600082825462001155919062001ca4565b925050819055505050565b6200116a620012a9565b73ffffffffffffffffffffffffffffffffffffffff166200118a620006c0565b73ffffffffffffffffffffffffffffffffffffffff1614620011e3576040517f08c379a0000000000000000000000000000000000000000000000000000000008152600401620011da9062002031565b60405180910390fd5b565b60008060009054906101000a900473ffffffffffffffffffffffffffffffffffffffff169050816000806101000a81548173ffffffffffffffffffffffffffffffffffffffff021916908373ffffffffffffffffffffffffffffffffffffffff1602179055508173ffffffffffffffffffffffffffffffffffffffff168173ffffffffffffffffffffffffffffffffffffffff167f8be0079c531659141344cd1fd0a4f28419497f9722a3daafe3b4186f6b6457e060405160405180910390a35050565b600033905090565b61173a806200205483390190565b828054620012cd9062001bce565b90600052602060002090601f016020900481019282620012f157600085556200133d565b82601f106200130c57805160ff19168380011785556200133d565b828001600101855582156200133d579182015b828111156200133c5782518255916020019190600101906200131f565b5b5090506200134c919062001350565b5090565b5b808211156200136b57600081600090555060010162001351565b5090565b6000819050919050565b62001384816200136f565b82525050565b6000602082019050620013a1600083018462001379565b92915050565b6000604051905090565b600080fd5b600080fd5b620013c6816200136f565b8114620013d257600080fd5b50565b600081359050620013e681620013bb565b92915050565b600060208284031215620014055762001404620013b1565b5b60006200141584828501620013d5565b91505092915050565b600073ffffffffffffffffffffffffffffffffffffffff82169050919050565b60006200144b826200141e565b9050919050565b6200145d816200143e565b82525050565b60006020820190506200147a600083018462001452565b92915050565b6200148b816200143e565b81146200149757600080fd5b50565b600081359050620014ab8162001480565b92915050565b600060208284031215620014ca57620014c9620013b1565b5b6000620014da848285016200149a565b91505092915050565b60008115159050919050565b620014fa81620014e3565b82525050565b6000602082019050620015176000830184620014ef565b92915050565b6200152881620014e3565b81146200153457600080fd5b50565b60008135905062001548816200151d565b92915050565b60008060408385031215620015685762001567620013b1565b5b600062001578858286016200149a565b92505060206200158b8582860162001537565b9150509250929050565b600081519050919050565b600082825260208201905092915050565b60005b83811015620015d1578082015181840152602081019050620015b4565b83811115620015e1576000848401525b50505050565b6000601f19601f8301169050919050565b6000620016058262001595565b620016118185620015a0565b935062001623818560208601620015b1565b6200162e81620015e7565b840191505092915050565b600061014082019050818103600083015262001656818d620015f8565b905062001667602083018c62001379565b62001676604083018b620014ef565b62001685606083018a620014ef565b62001694608083018962001452565b620016a360a083018862001379565b620016b260c083018762001379565b620016c160e083018662001379565b620016d161010083018562001379565b620016e161012083018462001452565b9b9a5050505050505050505050565b600080604083850312156200170a5762001709620013b1565b5b60006200171a858286016200149a565b92505060206200172d85828601620013d5565b9150509250929050565b60006040820190506200174e600083018562001452565b6200175d602083018462001379565b9392505050565b60008060008060008060008060006101208a8c0312156200178a5762001789620013b1565b5b60006200179a8c828d016200149a565b9950506020620017ad8c828d01620013d5565b9850506040620017c08c828d01620013d5565b9750506060620017d38c828d01620013d5565b9650506080620017e68c828d01620013d5565b95505060a0620017f98c828d01620013d5565b94505060c06200180c8c828d01620013d5565b93505060e06200181f8c828d01620013d5565b925050610100620018338c828d01620013d5565b9150509295985092959850929598565b600080fd5b600080fd5b7f4e487b7100000000000000000000000000000000000000000000000000000000600052604160045260246000fd5b6200188782620015e7565b810181811067ffffffffffffffff82111715620018a957620018a86200184d565b5b80604052505050565b6000620018be620013a7565b9050620018cc82826200187c565b919050565b600067ffffffffffffffff821115620018ef57620018ee6200184d565b5b620018fa82620015e7565b9050602081019050919050565b82818337600083830152505050565b60006200192d6200192784620018d1565b620018b2565b9050828152602081018484840111156200194c576200194b62001848565b5b6200195984828562001907565b509392505050565b600082601f83011262001979576200197862001843565b5b81356200198b84826020860162001916565b91505092915050565b600080600060608486031215620019b057620019af620013b1565b5b6000620019c0868287016200149a565b935050602084013567ffffffffffffffff811115620019e457620019e3620013b6565b5b620019f28682870162001961565b925050604062001a05868287016200149a565b9150509250925092565b7f4e657720696e766573746f722773207374617475732073686f756c642062652060008201527f646966666572656e742100000000000000000000000000000000000000000000602082015250565b600062001a6d602a83620015a0565b915062001a7a8262001a0f565b604082019050919050565b6000602082019050818103600083015262001aa08162001a5e565b9050919050565b600060608201905062001abe600083018662001452565b62001acd602083018562001452565b62001adc6040830184620014ef565b949350505050565b7f53746172747570206973206e6f74207265676973746572656421000000000000600082015250565b600062001b1c601a83620015a0565b915062001b298262001ae4565b602082019050919050565b6000602082019050818103600083015262001b4f8162001b0d565b9050919050565b60008151905062001b67816200151d565b92915050565b60006020828403121562001b865762001b85620013b1565b5b600062001b968482850162001b56565b91505092915050565b7f4e487b7100000000000000000000000000000000000000000000000000000000600052602260045260246000fd5b6000600282049050600182168062001be757607f821691505b60208210810362001bfd5762001bfc62001b9f565b5b50919050565b7f496e766573746f72206973206e6f742072656769737465726564210000000000600082015250565b600062001c3b601b83620015a0565b915062001c488262001c03565b602082019050919050565b6000602082019050818103600083015262001c6e8162001c2c565b9050919050565b7f4e487b7100000000000000000000000000000000000000000000000000000000600052601160045260246000fd5b600062001cb1826200136f565b915062001cbe836200136f565b9250827fffffffffffffffffffffffffffffffffffffffffffffffffffffffffffffffff0382111562001cf65762001cf562001c75565b5b828201905092915050565b7f537461727475702070726f66696c65206973206e6f7420612076616c6964206360008201527f6f6e747261637400000000000000000000000000000000000000000000000000602082015250565b600062001d5f602783620015a0565b915062001d6c8262001d01565b604082019050919050565b6000602082019050818103600083015262001d928162001d50565b9050919050565b7f5374617274757020686173206120636f6e747261637400000000000000000000600082015250565b600062001dd1601683620015a0565b915062001dde8262001d99565b602082019050919050565b6000602082019050818103600083015262001e048162001dc2565b9050919050565b60006101208201905062001e23600083018c62001452565b62001e32602083018b62001379565b62001e41604083018a62001379565b62001e50606083018962001379565b62001e5f608083018862001379565b62001e6e60a083018762001379565b62001e7d60c083018662001379565b62001e8c60e083018562001379565b62001e9c61010083018462001379565b9a9950505050505050505050565b7f4f776e61626c653a206e6577206f776e657220697320746865207a65726f206160008201527f6464726573730000000000000000000000000000000000000000000000000000602082015250565b600062001f08602683620015a0565b915062001f158262001eaa565b604082019050919050565b6000602082019050818103600083015262001f3b8162001ef9565b9050919050565b7f5374617274757020697320726567697374657265642100000000000000000000600082015250565b600062001f7a601683620015a0565b915062001f878262001f42565b602082019050919050565b6000602082019050818103600083015262001fad8162001f6b565b9050919050565b600060408201905062001fcb600083018562001452565b62001fda602083018462001452565b9392505050565b7f4f776e61626c653a2063616c6c6572206973206e6f7420746865206f776e6572600082015250565b600062002019602083620015a0565b9150620020268262001fe1565b602082019050919050565b600060208201905081810360008301526200204c816200200a565b905091905056fe60806040523480156200001157600080fd5b506040516200173a3803806200173a8339818101604052810190620000379190620004e2565b620000576200004b6200017f60201b60201c565b6200018760201b60201c565b88600160006101000a81548173ffffffffffffffffffffffffffffffffffffffff021916908373ffffffffffffffffffffffffffffffffffffffff16021790555087600281905550426003819055506000600460006101000a81548160ff021916908315150217905550866005819055508560068190555084600781905550836008819055508260098190555081600e81905550620001026003806004600c6200024b60201b60201c565b80600f819055507fd912e0db3997b8efa782c542ab3e167df8ac40330751f5c28e1d35632d6ffadf600160009054906101000a900473ffffffffffffffffffffffffffffffffffffffff16600254600354600554604051620001689493929190620005e3565b60405180910390a150505050505050505062000834565b600033905090565b60008060009054906101000a900473ffffffffffffffffffffffffffffffffffffffff169050816000806101000a81548173ffffffffffffffffffffffffffffffffffffffff021916908373ffffffffffffffffffffffffffffffffffffffff1602179055508173ffffffffffffffffffffffffffffffffffffffff168173ffffffffffffffffffffffffffffffffffffffff167f8be0079c531659141344cd1fd0a4f28419497f9722a3daafe3b4186f6b6457e060405160405180910390a35050565b6200025b6200036b60201b60201c565b6000620002778486620003fc60201b620007811790919060201c565b90506000620002958385620003fc60201b620007811790919060201c565b90506000620002b38284620003fc60201b620007811790919060201c565b9050600e54811115620002fd576040517f08c379a0000000000000000000000000000000000000000000000000000000008152600401620002f490620006b7565b60405180910390fd5b86600a8190555085600b8190555084600c8190555083600d819055507fd9d73219186308fb5cd0317d12fd0e326d925501063d4596d5e84dd1708c8ffa33600a54600b54600c54600d546040516200035a959493929190620006d9565b60405180910390a150505050505050565b6200037b6200017f60201b60201c565b73ffffffffffffffffffffffffffffffffffffffff16620003a16200041460201b60201c565b73ffffffffffffffffffffffffffffffffffffffff1614620003fa576040517f08c379a0000000000000000000000000000000000000000000000000000000008152600401620003f19062000786565b60405180910390fd5b565b600081836200040c9190620007d7565b905092915050565b60008060009054906101000a900473ffffffffffffffffffffffffffffffffffffffff16905090565b600080fd5b600073ffffffffffffffffffffffffffffffffffffffff82169050919050565b60006200046f8262000442565b9050919050565b620004818162000462565b81146200048d57600080fd5b50565b600081519050620004a18162000476565b92915050565b6000819050919050565b620004bc81620004a7565b8114620004c857600080fd5b50565b600081519050620004dc81620004b1565b92915050565b60008060008060008060008060006101208a8c0312156200050857620005076200043d565b5b6000620005188c828d0162000490565b99505060206200052b8c828d01620004cb565b98505060406200053e8c828d01620004cb565b9750506060620005518c828d01620004cb565b9650506080620005648c828d01620004cb565b95505060a0620005778c828d01620004cb565b94505060c06200058a8c828d01620004cb565b93505060e06200059d8c828d01620004cb565b925050610100620005b18c828d01620004cb565b9150509295985092959850929598565b620005cc8162000462565b82525050565b620005dd81620004a7565b82525050565b6000608082019050620005fa6000830187620005c1565b620006096020830186620005d2565b620006186040830185620005d2565b620006276060830184620005d2565b95945050505050565b600082825260208201905092915050565b7f53686f756c64206265206c657373206f7220657175616c20746f206d6178696d60008201527f756d2070726f6a6563742074696d650000000000000000000000000000000000602082015250565b60006200069f602f8362000630565b9150620006ac8262000641565b604082019050919050565b60006020820190508181036000830152620006d28162000690565b9050919050565b600060a082019050620006f06000830188620005c1565b620006ff6020830187620005d2565b6200070e6040830186620005d2565b6200071d6060830185620005d2565b6200072c6080830184620005d2565b9695505050505050565b7f4f776e61626c653a2063616c6c6572206973206e6f7420746865206f776e6572600082015250565b60006200076e60208362000630565b91506200077b8262000736565b602082019050919050565b60006020820190508181036000830152620007a1816200075f565b9050919050565b7f4e487b7100000000000000000000000000000000000000000000000000000000600052601160045260246000fd5b6000620007e482620004a7565b9150620007f183620004a7565b9250827fffffffffffffffffffffffffffffffffffffffffffffffffffffffffffffffff03821115620008295762000828620007a8565b5b828201905092915050565b610ef680620008446000396000f3fe608060405234801561001057600080fd5b50600436106101375760003560e01c806374cf105e116100b85780638da5cb5b1161007c5780638da5cb5b146102d4578063b19ea0a6146102f2578063b2e062c014610310578063b2e595271461032e578063d35f33bf1461034c578063f2fde38b1461036a57610137565b806374cf105e1461023e578063762672241461025c5780637c3a00fd1461027a5780637e28f99c1461029857806383fe2b3d146102b657610137565b80634f554dea116100ff5780634f554dea146101bc57806351ff4847146101da578063589ac562146101f85780636abb373214610216578063715018a61461023457610137565b80631b48a3211461013c578063323046b11461015a578063368d883014610178578063390c193d146101965780634f4d5c10146101b2575b600080fd5b610144610386565b60405161015191906108fa565b60405180910390f35b61016261038c565b60405161016f91906108fa565b60405180910390f35b610180610392565b60405161018d91906108fa565b60405180910390f35b6101b060048036038101906101ab9190610946565b610398565b005b6101ba610496565b005b6101c461061b565b6040516101d191906108fa565b60405180910390f35b6101e2610621565b6040516101ef91906109c8565b60405180910390f35b610200610634565b60405161020d91906108fa565b60405180910390f35b61021e61063a565b60405161022b9190610a24565b60405180910390f35b61023c610660565b005b610246610674565b60405161025391906108fa565b60405180910390f35b61026461067a565b60405161027191906108fa565b60405180910390f35b610282610680565b60405161028f91906108fa565b60405180910390f35b6102a0610686565b6040516102ad91906108fa565b60405180910390f35b6102be61068c565b6040516102cb91906108fa565b60405180910390f35b6102dc610692565b6040516102e99190610a24565b60405180910390f35b6102fa6106bb565b60405161030791906108fa565b60405180910390f35b6103186106c1565b60405161032591906108fa565b60405180910390f35b6103366106f2565b60405161034391906108fa565b60405180910390f35b6103546106f8565b60405161036191906108fa565b60405180910390f35b610384600480360381019061037f9190610a6b565b6106fe565b005b60025481565b60035481565b600a5481565b6103a0610797565b60006103b5848661078190919063ffffffff16565b905060006103cc838561078190919063ffffffff16565b905060006103e3828461078190919063ffffffff16565b9050600e5481111561042a576040517f08c379a000000000000000000000000000000000000000000000000000000000815260040161042190610b1b565b60405180910390fd5b86600a8190555085600b8190555084600c8190555083600d819055507fd9d73219186308fb5cd0317d12fd0e326d925501063d4596d5e84dd1708c8ffa33600a54600b54600c54600d54604051610485959493929190610b3b565b60405180910390a150505050505050565b3373ffffffffffffffffffffffffffffffffffffffff16600160009054906101000a900473ffffffffffffffffffffffffffffffffffffffff1673ffffffffffffffffffffffffffffffffffffffff1614610526576040517f08c379a000000000000000000000000000000000000000000000000000000000815260040161051d90610bda565b60405180910390fd5b600460009054906101000a900460ff1615610576576040517f08c379a000000000000000000000000000000000000000000000000000000000815260040161056d90610c46565b60405180910390fd5b60006105806106c1565b116105c0576040517f08c379a00000000000000000000000000000000000000000000000000000000081526004016105b790610cd8565b60405180910390fd5b6001600460006101000a81548160ff0219169083151502179055507f51a1a099cba9a81d06bf524f39eed0ce75f3ffdcdf2a0fcc2f83f04f80d65aca33600133426040516106119493929190610cf8565b60405180910390a1565b600c5481565b600460009054906101000a900460ff1681565b60095481565b600160009054906101000a900473ffffffffffffffffffffffffffffffffffffffff1681565b610668610797565b6106726000610815565b565b600e5481565b60085481565b60055481565b60075481565b600f5481565b60008060009054906101000a900473ffffffffffffffffffffffffffffffffffffffff16905090565b600d5481565b6000600d54600c54600b54600a546106d99190610d6c565b6106e39190610d6c565b6106ed9190610d6c565b905090565b600b5481565b60065481565b610706610797565b600073ffffffffffffffffffffffffffffffffffffffff168173ffffffffffffffffffffffffffffffffffffffff1603610775576040517f08c379a000000000000000000000000000000000000000000000000000000000815260040161076c90610e34565b60405180910390fd5b61077e81610815565b50565b6000818361078f9190610d6c565b905092915050565b61079f6108d9565b73ffffffffffffffffffffffffffffffffffffffff166107bd610692565b73ffffffffffffffffffffffffffffffffffffffff1614610813576040517f08c379a000000000000000000000000000000000000000000000000000000000815260040161080a90610ea0565b60405180910390fd5b565b60008060009054906101000a900473ffffffffffffffffffffffffffffffffffffffff169050816000806101000a81548173ffffffffffffffffffffffffffffffffffffffff021916908373ffffffffffffffffffffffffffffffffffffffff1602179055508173ffffffffffffffffffffffffffffffffffffffff168173ffffffffffffffffffffffffffffffffffffffff167f8be0079c531659141344cd1fd0a4f28419497f9722a3daafe3b4186f6b6457e060405160405180910390a35050565b600033905090565b6000819050919050565b6108f4816108e1565b82525050565b600060208201905061090f60008301846108eb565b92915050565b600080fd5b610923816108e1565b811461092e57600080fd5b50565b6000813590506109408161091a565b92915050565b600080600080608085870312156109605761095f610915565b5b600061096e87828801610931565b945050602061097f87828801610931565b935050604061099087828801610931565b92505060606109a187828801610931565b91505092959194509250565b60008115159050919050565b6109c2816109ad565b82525050565b60006020820190506109dd60008301846109b9565b92915050565b600073ffffffffffffffffffffffffffffffffffffffff82169050919050565b6000610a0e826109e3565b9050919050565b610a1e81610a03565b82525050565b6000602082019050610a396000830184610a15565b92915050565b610a4881610a03565b8114610a5357600080fd5b50565b600081359050610a6581610a3f565b92915050565b600060208284031215610a8157610a80610915565b5b6000610a8f84828501610a56565b91505092915050565b600082825260208201905092915050565b7f53686f756c64206265206c657373206f7220657175616c20746f206d6178696d60008201527f756d2070726f6a6563742074696d650000000000000000000000000000000000602082015250565b6000610b05602f83610a98565b9150610b1082610aa9565b604082019050919050565b60006020820190508181036000830152610b3481610af8565b9050919050565b600060a082019050610b506000830188610a15565b610b5d60208301876108eb565b610b6a60408301866108eb565b610b7760608301856108eb565b610b8460808301846108eb565b9695505050505050565b7f4f6e6c7920737461727475702073686f756c6420616363657074210000000000600082015250565b6000610bc4601b83610a98565b9150610bcf82610b8e565b602082019050919050565b60006020820190508181036000830152610bf381610bb7565b9050919050565b7f436f6e747261637420686173206265656e207369676e65642100000000000000600082015250565b6000610c30601983610a98565b9150610c3b82610bfa565b602082019050919050565b60006020820190508181036000830152610c5f81610c23565b9050919050565b7f546f74616c206d6f6e7468732073686f756c642062652067726561746572207460008201527f68616e207a65726f210000000000000000000000000000000000000000000000602082015250565b6000610cc2602983610a98565b9150610ccd82610c66565b604082019050919050565b60006020820190508181036000830152610cf181610cb5565b9050919050565b6000608082019050610d0d6000830187610a15565b610d1a60208301866109b9565b610d276040830185610a15565b610d3460608301846108eb565b95945050505050565b7f4e487b7100000000000000000000000000000000000000000000000000000000600052601160045260246000fd5b6000610d77826108e1565b9150610d82836108e1565b9250827fffffffffffffffffffffffffffffffffffffffffffffffffffffffffffffffff03821115610db757610db6610d3d565b5b828201905092915050565b7f4f776e61626c653a206e6577206f776e657220697320746865207a65726f206160008201527f6464726573730000000000000000000000000000000000000000000000000000602082015250565b6000610e1e602683610a98565b9150610e2982610dc2565b604082019050919050565b60006020820190508181036000830152610e4d81610e11565b9050919050565b7f4f776e61626c653a2063616c6c6572206973206e6f7420746865206f776e6572600082015250565b6000610e8a602083610a98565b9150610e9582610e54565b602082019050919050565b60006020820190508181036000830152610eb981610e7d565b905091905056fea2646970667358221220c101d2d808bdc40e4293aef37c58b4642ec3de7d2a60f00d88bdb13be4d6fe7d64736f6c634300080e0033a26469706673582212206a244a492763c9b6fa111baf6e131dde5d9128fefd8bf87c21a0be7d52887cbf64736f6c634300080e0033",
  "immutableReferences": {},
  "source": "// SPDX-License-Identifier: MIT\r\npragma solidity ^0.8.14;\r\n\r\nimport \"./StartupContract.sol\";\r\nimport \"@openzeppelin/contracts/access/Ownable.sol\";\r\nimport \"@openzeppelin/contracts/token/ERC20/IERC20.sol\";\r\n\r\ncontract StartupsHandler is Ownable {\r\n    \r\n    struct Startup{\r\n        string name;     //Startup's startupName\r\n        uint registerDate;  //Register Date\r\n        bool status;        //startup's status: true or false;\r\n        bool hasContract;\r\n        address startupContractAddress;\r\n        uint amountTermal;\r\n        uint daiReceived;\r\n        uint daiReturned;\r\n        uint termalReturned;\r\n        address token;\r\n    }\r\n\r\n    struct token\r\n    {\r\n        address tokenAddress;\r\n        uint balance;\r\n    }\r\n    mapping(address => token) public startupToken;\r\n\r\n    mapping (address => Startup) public startups;\r\n    address[] public startupList;\r\n    \r\n    event LogCreateStartup(address _newStartupAddress, address _owner);\r\n    event LogNewStartupStatus(address _owner, address _startupAddress, bool _status);\r\n    event LogReturnTermal(address _sender, address _contract, uint _amount);\r\n\r\n    constructor() {}\r\n\r\n    function createStartup(\r\n            address _startupWallet, \r\n            string memory _startupName,\r\n            address tokenAddress\r\n            )\r\n        onlyOwner()\r\n        external\r\n    {\r\n        require(!startups[_startupWallet].status, \"Startup is registered!\");\r\n        startups[_startupWallet] = Startup(_startupName, block.timestamp, true, false, address(0), 0, 0, 0, 0, tokenAddress);\r\n        startupList.push(_startupWallet);\r\n        emit LogCreateStartup(_startupWallet, msg.sender);\r\n    }\r\n\r\n    function createStartupContract(\r\n            address _startupWallet, \r\n            uint _initialLoan,\r\n            uint _interestRate,\r\n            uint _maxConvertionRate,\r\n            uint _minConvertionRate,\r\n            uint _termalCoinPercentage,\r\n            uint _stableCoinPercentage,\r\n            uint _maxProjectime,\r\n            uint _activeFee\r\n        )\r\n        onlyOwner()\r\n        external\r\n    {\r\n        require(isValidStartup(_startupWallet), \"Startup profile is not a valid contract\");\r\n        require(!startups[_startupWallet].hasContract, \"Startup has a contract\");\r\n        \r\n        StartupContract newStartupContract = new StartupContract(\r\n                _startupWallet, \r\n                _initialLoan, \r\n                _interestRate, \r\n                _maxConvertionRate, \r\n                _minConvertionRate, \r\n                _termalCoinPercentage, \r\n                _stableCoinPercentage, \r\n                _maxProjectime,\r\n                _activeFee\r\n                );\r\n        startups[_startupWallet].hasContract = true;\r\n        startups[_startupWallet].startupContractAddress = address(newStartupContract);\r\n        newStartupContract.transferOwnership(msg.sender);\r\n    }\r\n    \r\n    function isValidStartup(address _startupAddress)\r\n        public\r\n        view\r\n        returns(bool)\r\n    {\r\n        return startups[_startupAddress].status;\r\n    }\r\n    \r\n    function getTotalStartups()\r\n        external\r\n        view\r\n        returns (uint)\r\n    {\r\n        return startupList.length;\r\n    }\r\n\r\n    //This function validate the startup's status before changing it.\r\n    function newStartupStatus(address _startupAddress, bool _status)\r\n        onlyOwner()\r\n        public\r\n    {\r\n        require(startups[_startupAddress].status != _status, \"New investor's status should be different!\");\r\n        startups[_startupAddress].status = _status;\r\n        emit LogNewStartupStatus(msg.sender, _startupAddress, _status);\r\n    }\r\n\r\n    function getStartupTokenAddress(address _startup)\r\n        public\r\n        view\r\n        returns (address)\r\n    {\r\n        require(isValidStartup(_startup), \"Startup is not registered!\");\r\n        \r\n        return startups[_startup].token;\r\n    }\r\n\r\n    function getSignatureStatus(address _startup)\r\n        public\r\n        view\r\n        returns (bool)\r\n    {\r\n        require(isValidStartup(_startup), \"Startup is not registered!\");\r\n        return StartupContract(startups[_startup].startupContractAddress).signature();\r\n    }\r\n\r\n    function addDepositDai(address _receiver, uint _amount) external {\r\n        require(isValidStartup(_receiver), \"Investor is not registered!\");\r\n        \r\n        startups[_receiver].daiReceived += _amount;\r\n    }\r\n\r\n    function addReturnedDai(address _receiver, uint _amount) external {\r\n        require(isValidStartup(_receiver), \"Startup is not registered!\");\r\n        \r\n        startups[_receiver].daiReturned += _amount;\r\n    }\r\n\r\n    function addReturnedTermal(address _receiver, uint _amount) external {\r\n        require(isValidStartup(_receiver), \"Startup is not registered!\");\r\n        \r\n        startups[_receiver].termalReturned += _amount;\r\n    }\r\n\r\n}",
  "sourcePath": "/media/k2/DATA/web3/termal2/contracts/StartupsHandler.sol",
  "compiler": {
    "name": "solc",
    "version": "0.8.14+commit.80d49f37.Emscripten.clang"
  },
  "schemaVersion": "3.4.6",
  "updatedAt": "2023-04-22T00:24:37.040Z",
  "networkType": "ethereum",
  "devdoc": {
    "kind": "dev",
    "methods": {
      "owner()": {
        "details": "Returns the address of the current owner."
      },
      "renounceOwnership()": {
        "details": "Leaves the contract without owner. It will not be possible to call `onlyOwner` functions anymore. Can only be called by the current owner. NOTE: Renouncing ownership will leave the contract without an owner, thereby removing any functionality that is only available to the owner."
      },
      "transferOwnership(address)": {
        "details": "Transfers ownership of the contract to a new account (`newOwner`). Can only be called by the current owner."
      }
    },
    "version": 1
  },
  "userdoc": {
    "kind": "user",
    "methods": {},
    "version": 1
  }
}