{
  "contractName": "Termal",
  "abi": [
    {
      "inputs": [
        {
          "internalType": "address",
          "name": "_dai",
          "type": "address"
        },
        {
          "internalType": "address",
          "name": "_termalToken",
          "type": "address"
        },
        {
          "internalType": "address",
          "name": "_investorsHandler",
          "type": "address"
        },
        {
          "internalType": "address",
          "name": "_startupsHandler",
          "type": "address"
        }
      ],
      "stateMutability": "payable",
      "type": "constructor",
      "payable": true
    },
    {
      "anonymous": false,
      "inputs": [
        {
          "indexed": false,
          "internalType": "address",
          "name": "_sender",
          "type": "address"
        },
        {
          "indexed": false,
          "internalType": "address",
          "name": "_receipent",
          "type": "address"
        },
        {
          "indexed": false,
          "internalType": "uint256",
          "name": "_amount",
          "type": "uint256"
        }
      ],
      "name": "LogInvestorDepositDai",
      "type": "event"
    },
    {
      "anonymous": false,
      "inputs": [
        {
          "indexed": false,
          "internalType": "address",
          "name": "_sender",
          "type": "address"
        },
        {
          "indexed": false,
          "internalType": "address",
          "name": "_contract",
          "type": "address"
        },
        {
          "indexed": false,
          "internalType": "uint256",
          "name": "_amount",
          "type": "uint256"
        }
      ],
      "name": "LogStartupReturnTermal",
      "type": "event"
    },
    {
      "anonymous": false,
      "inputs": [
        {
          "indexed": true,
          "internalType": "address",
          "name": "previousOwner",
          "type": "address"
        },
        {
          "indexed": true,
          "internalType": "address",
          "name": "newOwner",
          "type": "address"
        }
      ],
      "name": "OwnershipTransferred",
      "type": "event"
    },
    {
      "inputs": [],
      "name": "daiToken",
      "outputs": [
        {
          "internalType": "contract IERC20",
          "name": "",
          "type": "address"
        }
      ],
      "stateMutability": "view",
      "type": "function",
      "constant": true
    },
    {
      "inputs": [],
      "name": "investorsHandler",
      "outputs": [
        {
          "internalType": "contract InvestorsHandler",
          "name": "",
          "type": "address"
        }
      ],
      "stateMutability": "view",
      "type": "function",
      "constant": true
    },
    {
      "inputs": [],
      "name": "owner",
      "outputs": [
        {
          "internalType": "address",
          "name": "",
          "type": "address"
        }
      ],
      "stateMutability": "view",
      "type": "function",
      "constant": true
    },
    {
      "inputs": [],
      "name": "renounceOwnership",
      "outputs": [],
      "stateMutability": "nonpayable",
      "type": "function"
    },
    {
      "inputs": [
        {
          "internalType": "address",
          "name": "",
          "type": "address"
        }
      ],
      "name": "startupTokenBalance",
      "outputs": [
        {
          "internalType": "uint256",
          "name": "",
          "type": "uint256"
        }
      ],
      "stateMutability": "view",
      "type": "function",
      "constant": true
    },
    {
      "inputs": [],
      "name": "startupsHandler",
      "outputs": [
        {
          "internalType": "contract StartupsHandler",
          "name": "",
          "type": "address"
        }
      ],
      "stateMutability": "view",
      "type": "function",
      "constant": true
    },
    {
      "inputs": [],
      "name": "termalToken",
      "outputs": [
        {
          "internalType": "contract IERC20",
          "name": "",
          "type": "address"
        }
      ],
      "stateMutability": "view",
      "type": "function",
      "constant": true
    },
    {
      "inputs": [
        {
          "internalType": "address",
          "name": "newOwner",
          "type": "address"
        }
      ],
      "name": "transferOwnership",
      "outputs": [],
      "stateMutability": "nonpayable",
      "type": "function"
    },
    {
      "inputs": [
        {
          "internalType": "uint256",
          "name": "_amount",
          "type": "uint256"
        }
      ],
      "name": "investorDepositDai",
      "outputs": [],
      "stateMutability": "nonpayable",
      "type": "function"
    },
    {
      "inputs": [
        {
          "internalType": "uint256",
          "name": "_amount",
          "type": "uint256"
        }
      ],
      "name": "returnDaiStartup",
      "outputs": [],
      "stateMutability": "nonpayable",
      "type": "function"
    },
    {
      "inputs": [
        {
          "internalType": "uint256",
          "name": "_amount",
          "type": "uint256"
        }
      ],
      "name": "returnTermalStartup",
      "outputs": [],
      "stateMutability": "nonpayable",
      "type": "function"
    },
    {
      "inputs": [
        {
          "internalType": "uint256",
          "name": "_amount",
          "type": "uint256"
        }
      ],
      "name": "depositStartupToken",
      "outputs": [
        {
          "internalType": "bool",
          "name": "",
          "type": "bool"
        }
      ],
      "stateMutability": "nonpayable",
      "type": "function"
    },
    {
      "inputs": [
        {
          "internalType": "address",
          "name": "startupToken",
          "type": "address"
        },
        {
          "internalType": "address",
          "name": "_wallet",
          "type": "address"
        }
      ],
      "name": "getStartupTokenBalance",
      "outputs": [
        {
          "internalType": "uint256",
          "name": "",
          "type": "uint256"
        }
      ],
      "stateMutability": "view",
      "type": "function",
      "constant": true
    },
    {
      "inputs": [
        {
          "internalType": "address",
          "name": "_startupAddress",
          "type": "address"
        },
        {
          "internalType": "uint256",
          "name": "_amount",
          "type": "uint256"
        }
      ],
      "name": "transferDaiToStartup",
      "outputs": [],
      "stateMutability": "nonpayable",
      "type": "function"
    },
    {
      "inputs": [
        {
          "internalType": "address",
          "name": "_receiver",
          "type": "address"
        },
        {
          "internalType": "uint256",
          "name": "_amount",
          "type": "uint256"
        }
      ],
      "name": "transferTermal",
      "outputs": [],
      "stateMutability": "nonpayable",
      "type": "function"
    },
    {
      "inputs": [],
      "name": "getDaiContractBalance",
      "outputs": [
        {
          "internalType": "uint256",
          "name": "",
          "type": "uint256"
        }
      ],
      "stateMutability": "view",
      "type": "function",
      "constant": true
    },
    {
      "inputs": [],
      "name": "getTermalTotalSupply",
      "outputs": [
        {
          "internalType": "uint256",
          "name": "",
          "type": "uint256"
        }
      ],
      "stateMutability": "view",
      "type": "function",
      "constant": true
    },
    {
      "inputs": [
        {
          "internalType": "address",
          "name": "_wallet",
          "type": "address"
        }
      ],
      "name": "getTermalBalance",
      "outputs": [
        {
          "internalType": "uint256",
          "name": "",
          "type": "uint256"
        }
      ],
      "stateMutability": "view",
      "type": "function",
      "constant": true
    }
  ],
  "bytecode": "0x60806040526040516200254f3803806200254f83398181016040528101906200002991906200028d565b620000496200003d6200015760201b60201c565b6200015f60201b60201c565b83600260006101000a81548173ffffffffffffffffffffffffffffffffffffffff021916908373ffffffffffffffffffffffffffffffffffffffff16021790555082600160006101000a81548173ffffffffffffffffffffffffffffffffffffffff021916908373ffffffffffffffffffffffffffffffffffffffff16021790555081600460006101000a81548173ffffffffffffffffffffffffffffffffffffffff021916908373ffffffffffffffffffffffffffffffffffffffff16021790555080600360006101000a81548173ffffffffffffffffffffffffffffffffffffffff021916908373ffffffffffffffffffffffffffffffffffffffff16021790555050505050620002ff565b600033905090565b60008060009054906101000a900473ffffffffffffffffffffffffffffffffffffffff169050816000806101000a81548173ffffffffffffffffffffffffffffffffffffffff021916908373ffffffffffffffffffffffffffffffffffffffff1602179055508173ffffffffffffffffffffffffffffffffffffffff168173ffffffffffffffffffffffffffffffffffffffff167f8be0079c531659141344cd1fd0a4f28419497f9722a3daafe3b4186f6b6457e060405160405180910390a35050565b600080fd5b600073ffffffffffffffffffffffffffffffffffffffff82169050919050565b6000620002558262000228565b9050919050565b620002678162000248565b81146200027357600080fd5b50565b60008151905062000287816200025c565b92915050565b60008060008060808587031215620002aa57620002a962000223565b5b6000620002ba8782880162000276565b9450506020620002cd8782880162000276565b9350506040620002e08782880162000276565b9250506060620002f38782880162000276565b91505092959194509250565b612240806200030f6000396000f3fe608060405234801561001057600080fd5b50600436106101165760003560e01c80638da5cb5b116100a25780639855089b116100715780639855089b146102cf578063be22f546146102eb578063f2fde38b14610309578063f4cb924c14610325578063ff429ce41461034157610116565b80638da5cb5b1461023557806392358f4f1461025357806393882513146102835780639651c7ec146102b357610116565b80632a36afa6116100e95780632a36afa6146101a3578063312a8f97146101c15780636db074b2146101dd578063715018a6146101fb57806381da109a1461020557610116565b80630d49b3601461011b5780631e7d1d7a146101375780631eaaafcd146101675780632993118b14610185575b600080fd5b610135600480360381019061013091906119a0565b61035f565b005b610151600480360381019061014c91906119e0565b61040c565b60405161015e9190611a1c565b60405180910390f35b61016f6104b1565b60405161017c9190611a96565b60405180910390f35b61018d6104d7565b60405161019a9190611a1c565b60405180910390f35b6101ab61056f565b6040516101b89190611ad2565b60405180910390f35b6101db60048036038101906101d69190611aed565b610595565b005b6101e5610749565b6040516101f29190611a1c565b60405180910390f35b6102036107ec565b005b61021f600480360381019061021a9190611b1a565b610800565b60405161022c9190611a1c565b60405180910390f35b61023d610884565b60405161024a9190611b69565b60405180910390f35b61026d60048036038101906102689190611aed565b6108ad565b60405161027a9190611b9f565b60405180910390f35b61029d600480360381019061029891906119e0565b610bd2565b6040516102aa9190611a1c565b60405180910390f35b6102cd60048036038101906102c891906119a0565b610bea565b005b6102e960048036038101906102e49190611aed565b610f20565b005b6102f3611174565b6040516103009190611bdb565b60405180910390f35b610323600480360381019061031e91906119e0565b61119a565b005b61033f600480360381019061033a9190611aed565b61121d565b005b610349611797565b6040516103569190611bdb565b60405180910390f35b6103676117bd565b600160009054906101000a900473ffffffffffffffffffffffffffffffffffffffff1673ffffffffffffffffffffffffffffffffffffffff1663a9059cbb83836040518363ffffffff1660e01b81526004016103c4929190611bf6565b6020604051808303816000875af11580156103e3573d6000803e3d6000fd5b505050506040513d601f19601f820116820180604052508101906104079190611c4b565b505050565b6000600160009054906101000a900473ffffffffffffffffffffffffffffffffffffffff1673ffffffffffffffffffffffffffffffffffffffff166370a08231836040518263ffffffff1660e01b81526004016104699190611b69565b602060405180830381865afa158015610486573d6000803e3d6000fd5b505050506040513d601f19601f820116820180604052508101906104aa9190611c8d565b9050919050565b600360009054906101000a900473ffffffffffffffffffffffffffffffffffffffff1681565b6000600160009054906101000a900473ffffffffffffffffffffffffffffffffffffffff1673ffffffffffffffffffffffffffffffffffffffff166318160ddd6040518163ffffffff1660e01b8152600401602060405180830381865afa158015610546573d6000803e3d6000fd5b505050506040513d601f19601f8201168201806040525081019061056a9190611c8d565b905090565b600460009054906101000a900473ffffffffffffffffffffffffffffffffffffffff1681565b6000600160009054906101000a900473ffffffffffffffffffffffffffffffffffffffff1673ffffffffffffffffffffffffffffffffffffffff166323b872dd3330856040518463ffffffff1660e01b81526004016105f693929190611cba565b6020604051808303816000875af1158015610615573d6000803e3d6000fd5b505050506040513d601f19601f820116820180604052508101906106399190611c4b565b90508061067b576040517f08c379a000000000000000000000000000000000000000000000000000000000815260040161067290611d4e565b60405180910390fd5b600360009054906101000a900473ffffffffffffffffffffffffffffffffffffffff1673ffffffffffffffffffffffffffffffffffffffff1663fed8c23633846040518363ffffffff1660e01b81526004016106d8929190611bf6565b600060405180830381600087803b1580156106f257600080fd5b505af1158015610706573d6000803e3d6000fd5b505050507fb58296c2c3bdb9fcf26996d8c5d9ae079224562d4be2adea926b63fc84c8654633308460405161073d93929190611cba565b60405180910390a15050565b6000600260009054906101000a900473ffffffffffffffffffffffffffffffffffffffff1673ffffffffffffffffffffffffffffffffffffffff166370a08231306040518263ffffffff1660e01b81526004016107a69190611b69565b602060405180830381865afa1580156107c3573d6000803e3d6000fd5b505050506040513d601f19601f820116820180604052508101906107e79190611c8d565b905090565b6107f46117bd565b6107fe600061183b565b565b60008273ffffffffffffffffffffffffffffffffffffffff166370a08231836040518263ffffffff1660e01b815260040161083b9190611b69565b602060405180830381865afa158015610858573d6000803e3d6000fd5b505050506040513d601f19601f8201168201806040525081019061087c9190611c8d565b905092915050565b60008060009054906101000a900473ffffffffffffffffffffffffffffffffffffffff16905090565b6000600360009054906101000a900473ffffffffffffffffffffffffffffffffffffffff1673ffffffffffffffffffffffffffffffffffffffff166324a9caa0336040518263ffffffff1660e01b815260040161090a9190611b69565b602060405180830381865afa158015610927573d6000803e3d6000fd5b505050506040513d601f19601f8201168201806040525081019061094b9190611c4b565b61098a576040517f08c379a000000000000000000000000000000000000000000000000000000000815260040161098190611dba565b60405180910390fd5b6000600360009054906101000a900473ffffffffffffffffffffffffffffffffffffffff1673ffffffffffffffffffffffffffffffffffffffff1663b50de789336040518263ffffffff1660e01b81526004016109e79190611b69565b602060405180830381865afa158015610a04573d6000803e3d6000fd5b505050506040513d601f19601f82011682018060405250810190610a289190611def565b90506000819050838173ffffffffffffffffffffffffffffffffffffffff1663dd62ed3e33306040518363ffffffff1660e01b8152600401610a6b929190611e1c565b602060405180830381865afa158015610a88573d6000803e3d6000fd5b505050506040513d601f19601f82011682018060405250810190610aac9190611c8d565b1015610aed576040517f08c379a0000000000000000000000000000000000000000000000000000000008152600401610ae490611e91565b60405180910390fd5b60008173ffffffffffffffffffffffffffffffffffffffff166323b872dd3330886040518463ffffffff1660e01b8152600401610b2c93929190611cba565b6020604051808303816000875af1158015610b4b573d6000803e3d6000fd5b505050506040513d601f19601f82011682018060405250810190610b6f9190611c4b565b905084600560003373ffffffffffffffffffffffffffffffffffffffff1673ffffffffffffffffffffffffffffffffffffffff1681526020019081526020016000206000828254610bc09190611ee0565b92505081905550809350505050919050565b60056020528060005260406000206000915090505481565b610bf26117bd565b600360009054906101000a900473ffffffffffffffffffffffffffffffffffffffff1673ffffffffffffffffffffffffffffffffffffffff166324a9caa0836040518263ffffffff1660e01b8152600401610c4d9190611b69565b602060405180830381865afa158015610c6a573d6000803e3d6000fd5b505050506040513d601f19601f82011682018060405250810190610c8e9190611c4b565b610ccd576040517f08c379a0000000000000000000000000000000000000000000000000000000008152600401610cc490611dba565b60405180910390fd5b600360009054906101000a900473ffffffffffffffffffffffffffffffffffffffff1673ffffffffffffffffffffffffffffffffffffffff166375126d64836040518263ffffffff1660e01b8152600401610d289190611b69565b602060405180830381865afa158015610d45573d6000803e3d6000fd5b505050506040513d601f19601f82011682018060405250810190610d699190611c4b565b610da8576040517f08c379a0000000000000000000000000000000000000000000000000000000008152600401610d9f90611f82565b60405180910390fd5b6000600260009054906101000a900473ffffffffffffffffffffffffffffffffffffffff1673ffffffffffffffffffffffffffffffffffffffff1663a9059cbb84846040518363ffffffff1660e01b8152600401610e07929190611bf6565b6020604051808303816000875af1158015610e26573d6000803e3d6000fd5b505050506040513d601f19601f82011682018060405250810190610e4a9190611c4b565b905080610e8c576040517f08c379a0000000000000000000000000000000000000000000000000000000008152600401610e8390611d4e565b60405180910390fd5b600360009054906101000a900473ffffffffffffffffffffffffffffffffffffffff1673ffffffffffffffffffffffffffffffffffffffff1663c63208a484846040518363ffffffff1660e01b8152600401610ee9929190611bf6565b600060405180830381600087803b158015610f0357600080fd5b505af1158015610f17573d6000803e3d6000fd5b50505050505050565b600360009054906101000a900473ffffffffffffffffffffffffffffffffffffffff1673ffffffffffffffffffffffffffffffffffffffff166324a9caa0336040518263ffffffff1660e01b8152600401610f7b9190611b69565b602060405180830381865afa158015610f98573d6000803e3d6000fd5b505050506040513d601f19601f82011682018060405250810190610fbc9190611c4b565b610ffb576040517f08c379a0000000000000000000000000000000000000000000000000000000008152600401610ff290611dba565b60405180910390fd5b6000600260009054906101000a900473ffffffffffffffffffffffffffffffffffffffff1673ffffffffffffffffffffffffffffffffffffffff166323b872dd3330856040518463ffffffff1660e01b815260040161105c93929190611cba565b6020604051808303816000875af115801561107b573d6000803e3d6000fd5b505050506040513d601f19601f8201168201806040525081019061109f9190611c4b565b9050806110e1576040517f08c379a00000000000000000000000000000000000000000000000000000000081526004016110d890611d4e565b60405180910390fd5b600360009054906101000a900473ffffffffffffffffffffffffffffffffffffffff1673ffffffffffffffffffffffffffffffffffffffff1663ed6ba4dd33846040518363ffffffff1660e01b815260040161113e929190611bf6565b600060405180830381600087803b15801561115857600080fd5b505af115801561116c573d6000803e3d6000fd5b505050505050565b600260009054906101000a900473ffffffffffffffffffffffffffffffffffffffff1681565b6111a26117bd565b600073ffffffffffffffffffffffffffffffffffffffff168173ffffffffffffffffffffffffffffffffffffffff1603611211576040517f08c379a000000000000000000000000000000000000000000000000000000000815260040161120890612014565b60405180910390fd5b61121a8161183b565b50565b600460009054906101000a900473ffffffffffffffffffffffffffffffffffffffff1673ffffffffffffffffffffffffffffffffffffffff16635092538a336040518263ffffffff1660e01b81526004016112789190611b69565b602060405180830381865afa158015611295573d6000803e3d6000fd5b505050506040513d601f19601f820116820180604052508101906112b99190611c4b565b6112f8576040517f08c379a00000000000000000000000000000000000000000000000000000000081526004016112ef90612080565b60405180910390fd5b600460009054906101000a900473ffffffffffffffffffffffffffffffffffffffff1673ffffffffffffffffffffffffffffffffffffffff166375126d64336040518263ffffffff1660e01b81526004016113539190611b69565b602060405180830381865afa158015611370573d6000803e3d6000fd5b505050506040513d601f19601f820116820180604052508101906113949190611c4b565b6113d3576040517f08c379a00000000000000000000000000000000000000000000000000000000081526004016113ca90612112565b60405180910390fd5b80600260009054906101000a900473ffffffffffffffffffffffffffffffffffffffff1673ffffffffffffffffffffffffffffffffffffffff1663dd62ed3e33306040518363ffffffff1660e01b8152600401611431929190611e1c565b602060405180830381865afa15801561144e573d6000803e3d6000fd5b505050506040513d601f19601f820116820180604052508101906114729190611c8d565b10156114b3576040517f08c379a00000000000000000000000000000000000000000000000000000000081526004016114aa9061217e565b60405180910390fd5b6000600260009054906101000a900473ffffffffffffffffffffffffffffffffffffffff1673ffffffffffffffffffffffffffffffffffffffff166323b872dd3330856040518463ffffffff1660e01b815260040161151493929190611cba565b6020604051808303816000875af1158015611533573d6000803e3d6000fd5b505050506040513d601f19601f820116820180604052508101906115579190611c4b565b905080611599576040517f08c379a000000000000000000000000000000000000000000000000000000000815260040161159090611d4e565b60405180910390fd5b600460009054906101000a900473ffffffffffffffffffffffffffffffffffffffff1673ffffffffffffffffffffffffffffffffffffffff1663c63208a433846040518363ffffffff1660e01b81526004016115f6929190611bf6565b600060405180830381600087803b15801561161057600080fd5b505af1158015611624573d6000803e3d6000fd5b50505050600160009054906101000a900473ffffffffffffffffffffffffffffffffffffffff1673ffffffffffffffffffffffffffffffffffffffff1663a9059cbb33846040518363ffffffff1660e01b8152600401611685929190611bf6565b6020604051808303816000875af11580156116a4573d6000803e3d6000fd5b505050506040513d601f19601f820116820180604052508101906116c89190611c4b565b50600460009054906101000a900473ffffffffffffffffffffffffffffffffffffffff1673ffffffffffffffffffffffffffffffffffffffff1663dceb4c0a33846040518363ffffffff1660e01b8152600401611726929190611bf6565b600060405180830381600087803b15801561174057600080fd5b505af1158015611754573d6000803e3d6000fd5b505050507fdf825b8afb8d8de80dfbee1fb4a5e418bb3abd1dc37817dc9a0ede0f8f9c191333308460405161178b93929190611cba565b60405180910390a15050565b600160009054906101000a900473ffffffffffffffffffffffffffffffffffffffff1681565b6117c56118ff565b73ffffffffffffffffffffffffffffffffffffffff166117e3610884565b73ffffffffffffffffffffffffffffffffffffffff1614611839576040517f08c379a0000000000000000000000000000000000000000000000000000000008152600401611830906121ea565b60405180910390fd5b565b60008060009054906101000a900473ffffffffffffffffffffffffffffffffffffffff169050816000806101000a81548173ffffffffffffffffffffffffffffffffffffffff021916908373ffffffffffffffffffffffffffffffffffffffff1602179055508173ffffffffffffffffffffffffffffffffffffffff168173ffffffffffffffffffffffffffffffffffffffff167f8be0079c531659141344cd1fd0a4f28419497f9722a3daafe3b4186f6b6457e060405160405180910390a35050565b600033905090565b600080fd5b600073ffffffffffffffffffffffffffffffffffffffff82169050919050565b60006119378261190c565b9050919050565b6119478161192c565b811461195257600080fd5b50565b6000813590506119648161193e565b92915050565b6000819050919050565b61197d8161196a565b811461198857600080fd5b50565b60008135905061199a81611974565b92915050565b600080604083850312156119b7576119b6611907565b5b60006119c585828601611955565b92505060206119d68582860161198b565b9150509250929050565b6000602082840312156119f6576119f5611907565b5b6000611a0484828501611955565b91505092915050565b611a168161196a565b82525050565b6000602082019050611a316000830184611a0d565b92915050565b6000819050919050565b6000611a5c611a57611a528461190c565b611a37565b61190c565b9050919050565b6000611a6e82611a41565b9050919050565b6000611a8082611a63565b9050919050565b611a9081611a75565b82525050565b6000602082019050611aab6000830184611a87565b92915050565b6000611abc82611a63565b9050919050565b611acc81611ab1565b82525050565b6000602082019050611ae76000830184611ac3565b92915050565b600060208284031215611b0357611b02611907565b5b6000611b118482850161198b565b91505092915050565b60008060408385031215611b3157611b30611907565b5b6000611b3f85828601611955565b9250506020611b5085828601611955565b9150509250929050565b611b638161192c565b82525050565b6000602082019050611b7e6000830184611b5a565b92915050565b60008115159050919050565b611b9981611b84565b82525050565b6000602082019050611bb46000830184611b90565b92915050565b6000611bc582611a63565b9050919050565b611bd581611bba565b82525050565b6000602082019050611bf06000830184611bcc565b92915050565b6000604082019050611c0b6000830185611b5a565b611c186020830184611a0d565b9392505050565b611c2881611b84565b8114611c3357600080fd5b50565b600081519050611c4581611c1f565b92915050565b600060208284031215611c6157611c60611907565b5b6000611c6f84828501611c36565b91505092915050565b600081519050611c8781611974565b92915050565b600060208284031215611ca357611ca2611907565b5b6000611cb184828501611c78565b91505092915050565b6000606082019050611ccf6000830186611b5a565b611cdc6020830185611b5a565b611ce96040830184611a0d565b949350505050565b600082825260208201905092915050565b7f4465706f736974206661696c6564210000000000000000000000000000000000600082015250565b6000611d38600f83611cf1565b9150611d4382611d02565b602082019050919050565b60006020820190508181036000830152611d6781611d2b565b9050919050565b7f537461727475702073686f756c642062652076616c6964210000000000000000600082015250565b6000611da4601883611cf1565b9150611daf82611d6e565b602082019050919050565b60006020820190508181036000830152611dd381611d97565b9050919050565b600081519050611de98161193e565b92915050565b600060208284031215611e0557611e04611907565b5b6000611e1384828501611dda565b91505092915050565b6000604082019050611e316000830185611b5a565b611e3e6020830184611b5a565b9392505050565b7f416c6c6f77616e6365206973206e6f7420656e6f756768210000000000000000600082015250565b6000611e7b601883611cf1565b9150611e8682611e45565b602082019050919050565b60006020820190508181036000830152611eaa81611e6e565b9050919050565b7f4e487b7100000000000000000000000000000000000000000000000000000000600052601160045260246000fd5b6000611eeb8261196a565b9150611ef68361196a565b9250827fffffffffffffffffffffffffffffffffffffffffffffffffffffffffffffffff03821115611f2b57611f2a611eb1565b5b828201905092915050565b7f436f6e74726163742073686f756c64206265207369676e656420666972737421600082015250565b6000611f6c602083611cf1565b9150611f7782611f36565b602082019050919050565b60006020820190508181036000830152611f9b81611f5f565b9050919050565b7f4f776e61626c653a206e6577206f776e657220697320746865207a65726f206160008201527f6464726573730000000000000000000000000000000000000000000000000000602082015250565b6000611ffe602683611cf1565b915061200982611fa2565b604082019050919050565b6000602082019050818103600083015261202d81611ff1565b9050919050565b7f496e766573746f72206e6f742072656769737465726564210000000000000000600082015250565b600061206a601883611cf1565b915061207582612034565b602082019050919050565b600060208201905081810360008301526120998161205d565b9050919050565b7f496e766573746f722073686f756c6420686176652061207369676e656420636f60008201527f6e74726163742100000000000000000000000000000000000000000000000000602082015250565b60006120fc602783611cf1565b9150612107826120a0565b604082019050919050565b6000602082019050818103600083015261212b816120ef565b9050919050565b7f4e6f7420656e6f75676820616c6c6f77616e6365210000000000000000000000600082015250565b6000612168601583611cf1565b915061217382612132565b602082019050919050565b600060208201905081810360008301526121978161215b565b9050919050565b7f4f776e61626c653a2063616c6c6572206973206e6f7420746865206f776e6572600082015250565b60006121d4602083611cf1565b91506121df8261219e565b602082019050919050565b60006020820190508181036000830152612203816121c7565b905091905056fea26469706673582212202af4589586e243c443785a1e918b2b9cb471c3124b30118aca2a8a48eb10d1d764736f6c634300080e0033",
  "immutableReferences": {},
  "source": "// SPDX-License-Identifier: MIT\r\npragma solidity ^0.8.14;\r\n\r\nimport \"./StartupsHandler.sol\";\r\nimport \"./InvestorsHandler.sol\";\r\nimport \"./TermalToken.sol\";\r\nimport \"@openzeppelin/contracts/access/Ownable.sol\";\r\nimport \"@openzeppelin/contracts/token/ERC20/IERC20.sol\";\r\n\r\ncontract Termal is Ownable {\r\n    IERC20 public termalToken;\r\n    IERC20 public daiToken;\r\n    StartupsHandler public startupsHandler;\r\n    InvestorsHandler public investorsHandler;\r\n\r\n    event LogInvestorDepositDai(address _sender, address _receipent, uint _amount);\r\n    event LogStartupReturnTermal(address _sender, address _contract, uint _amount);\r\n\r\n    mapping (address => uint) public startupTokenBalance;\r\n\r\n    /*event LogCreateStartup(address _newStartupAddress, address _owner);\r\n    event LogNewStartupStatus(address _owner, address _startupAddress, bool _status);\r\n    \r\n    event LogNewInvestorStatus(address _owner,  address _investorAddress, bool _status);\r\n    event LogCreateInvestor(address _creator, address _investorAddress, string _investorName, uint _registerDate, bool _status, uint _rating, uint _amountInvested);\r\n    */\r\n   \r\n    constructor(address _dai, address _termalToken, address _investorsHandler, address _startupsHandler) payable{\r\n        daiToken = IERC20(_dai);\r\n        termalToken = IERC20(_termalToken);\r\n        investorsHandler = InvestorsHandler(_investorsHandler);\r\n        startupsHandler = StartupsHandler(_startupsHandler);\r\n    }\r\n    \r\n\r\n    function investorDepositDai(uint _amount) external {\r\n        require(investorsHandler.isValidInvestor(msg.sender), \"Investor not registered!\");\r\n        require(investorsHandler.getSignatureStatus(msg.sender), \"Investor should have a signed contract!\");\r\n        \r\n        require(daiToken.allowance(msg.sender, address(this)) >= _amount, \"Not enough allowance!\");\r\n        bool success = daiToken.transferFrom(msg.sender, address(this), _amount);\r\n\r\n        require(success, \"Deposit failed!\");\r\n        investorsHandler.addDepositDai(msg.sender, _amount);\r\n\r\n        //ratio?\r\n        termalToken.transfer(msg.sender, _amount);\r\n\r\n        investorsHandler.addDepositTermal(msg.sender, _amount);\r\n\r\n        emit LogInvestorDepositDai(msg.sender, address(this), _amount);\r\n    }\r\n\r\n    // This function should be used by startups to deposit DAI\r\n    function returnDaiStartup(uint _amount) external {\r\n        require(startupsHandler.isValidStartup(msg.sender), \"Startup should be valid!\");\r\n        bool success = daiToken.transferFrom(msg.sender, address(this), _amount);\r\n        require(success, \"Deposit failed!\");\r\n\r\n        startupsHandler.addReturnedDai(msg.sender, _amount);\r\n    }\r\n\r\n    function returnTermalStartup(uint _amount) external {\r\n        \r\n        bool success = termalToken.transferFrom(msg.sender, address(this), _amount);\r\n        require(success, \"Deposit failed!\");\r\n        \r\n        startupsHandler.addReturnedTermal(msg.sender, _amount);\r\n\r\n        emit LogStartupReturnTermal(msg.sender, address(this), _amount);\r\n    }\r\n\r\n    function depositStartupToken(uint _amount)\r\n        public\r\n        returns(bool)\r\n    {\r\n        require(startupsHandler.isValidStartup(msg.sender), \"Startup should be valid!\");\r\n        //require(startupsHandler.getSignatureStatus(msg.sender), \"Contract should be signed first!\");\r\n\r\n        address tokenAddress = startupsHandler.getStartupTokenAddress(msg.sender);\r\n        IERC20 startupToken = IERC20(tokenAddress);\r\n\r\n        require(startupToken.allowance(msg.sender, address(this)) >= _amount, \"Allowance is not enough!\");\r\n        \r\n        bool success = startupToken.transferFrom(msg.sender, address(this), _amount);\r\n\r\n        startupTokenBalance[msg.sender] += _amount;\r\n\r\n        return success;\r\n    }\r\n\r\n    function getStartupTokenBalance(address startupToken, address _wallet)\r\n        external\r\n        view\r\n        returns (uint)\r\n    {\r\n        return IERC20(startupToken).balanceOf(_wallet);\r\n    }\r\n\r\n    function transferDaiToStartup(address _startupAddress, uint _amount)\r\n        onlyOwner()\r\n        public\r\n    {\r\n        require(startupsHandler.isValidStartup(_startupAddress), \"Startup should be valid!\");\r\n\r\n        require(startupsHandler.getSignatureStatus(_startupAddress), \"Contract should be signed first!\");\r\n\r\n        bool success = daiToken.transfer(_startupAddress, _amount);\r\n        require(success, \"Deposit failed!\");\r\n        \r\n        startupsHandler.addDepositDai(_startupAddress, _amount);\r\n    }\r\n\r\n    //This function allows to send termal from the contract to a user.\r\n    function transferTermal(address _receiver, uint _amount)\r\n        onlyOwner()\r\n        public\r\n    {\r\n        termalToken.transfer(_receiver, _amount);\r\n    }\r\n\r\n    //This function returns the dai contract's balance\r\n    function getDaiContractBalance()\r\n        external\r\n        view\r\n        returns (uint)\r\n    {\r\n        return daiToken.balanceOf(address(this));\r\n    }\r\n\r\n    // This function returns the Termal tottal supply\r\n    // Probably we don't need these two functions\r\n    function getTermalTotalSupply()\r\n        external\r\n        view\r\n        returns (uint)\r\n    {\r\n        return termalToken.totalSupply();\r\n    }\r\n\r\n    function getTermalBalance(address _wallet)\r\n        external\r\n        view\r\n        returns (uint)\r\n    {\r\n        return termalToken.balanceOf(_wallet);\r\n    }\r\n   \r\n}",
  "sourcePath": "/media/k2/DATA/web3/termal2/contracts/Termal.sol",
  "compiler": {
    "name": "solc",
    "version": "0.8.14+commit.80d49f37.Emscripten.clang"
  },
  "schemaVersion": "3.4.6",
  "updatedAt": "2023-04-22T00:24:36.904Z",
  "networkType": "ethereum",
  "devdoc": {
    "kind": "dev",
    "methods": {
      "owner()": {
        "details": "Returns the address of the current owner."
      },
      "renounceOwnership()": {
        "details": "Leaves the contract without owner. It will not be possible to call `onlyOwner` functions anymore. Can only be called by the current owner. NOTE: Renouncing ownership will leave the contract without an owner, thereby removing any functionality that is only available to the owner."
      },
      "transferOwnership(address)": {
        "details": "Transfers ownership of the contract to a new account (`newOwner`). Can only be called by the current owner."
      }
    },
    "version": 1
  },
  "userdoc": {
    "kind": "user",
    "methods": {},
    "version": 1
  }
}